{
  "contracts/oracles/UniswapV2Oracle.sol": {
    "UniswapV2Oracle": {
      "abi": [
        {
          "inputs": [
            {
              "internalType": "address",
              "name": "factory",
              "type": "address"
            },
            {
              "internalType": "address",
              "name": "tokenA",
              "type": "address"
            },
            {
              "internalType": "address",
              "name": "tokenB",
              "type": "address"
            },
            {
              "internalType": "uint256",
              "name": "_period",
              "type": "uint256"
            }
          ],
          "stateMutability": "nonpayable",
          "type": "constructor"
        },
        {
          "inputs": [],
          "name": "blockTimestampLast",
          "outputs": [
            {
              "internalType": "uint32",
              "name": "",
              "type": "uint32"
            }
          ],
          "stateMutability": "view",
          "type": "function"
        },
        {
          "inputs": [
            {
              "internalType": "address",
              "name": "token",
              "type": "address"
            },
            {
              "internalType": "uint256",
              "name": "amountIn",
              "type": "uint256"
            }
          ],
          "name": "consult",
          "outputs": [
            {
              "internalType": "uint256",
              "name": "",
              "type": "uint256"
            }
          ],
          "stateMutability": "view",
          "type": "function"
        },
        {
          "inputs": [],
          "name": "pair",
          "outputs": [
            {
              "internalType": "contract IUniswapV2Pair",
              "name": "",
              "type": "address"
            }
          ],
          "stateMutability": "view",
          "type": "function"
        },
        {
          "inputs": [],
          "name": "period",
          "outputs": [
            {
              "internalType": "uint256",
              "name": "",
              "type": "uint256"
            }
          ],
          "stateMutability": "view",
          "type": "function"
        },
        {
          "inputs": [],
          "name": "price0Average",
          "outputs": [
            {
              "internalType": "uint224",
              "name": "_x",
              "type": "uint224"
            }
          ],
          "stateMutability": "view",
          "type": "function"
        },
        {
          "inputs": [],
          "name": "price0CumulativeLast",
          "outputs": [
            {
              "internalType": "uint256",
              "name": "",
              "type": "uint256"
            }
          ],
          "stateMutability": "view",
          "type": "function"
        },
        {
          "inputs": [],
          "name": "price1Average",
          "outputs": [
            {
              "internalType": "uint224",
              "name": "_x",
              "type": "uint224"
            }
          ],
          "stateMutability": "view",
          "type": "function"
        },
        {
          "inputs": [],
          "name": "price1CumulativeLast",
          "outputs": [
            {
              "internalType": "uint256",
              "name": "",
              "type": "uint256"
            }
          ],
          "stateMutability": "view",
          "type": "function"
        },
        {
          "inputs": [],
          "name": "token0",
          "outputs": [
            {
              "internalType": "address",
              "name": "",
              "type": "address"
            }
          ],
          "stateMutability": "view",
          "type": "function"
        },
        {
          "inputs": [],
          "name": "token1",
          "outputs": [
            {
              "internalType": "address",
              "name": "",
              "type": "address"
            }
          ],
          "stateMutability": "view",
          "type": "function"
        },
        {
          "inputs": [],
          "name": "update",
          "outputs": [],
          "stateMutability": "nonpayable",
          "type": "function"
        }
      ],
      "evm": {
        "bytecode": {
          "linkReferences": {},
          "object": "60e06040523480156200001157600080fd5b5060405162000f8c38038062000f8c8339810160408190526200003491620003a3565b600081905560405163e6a4390560e01b81526001600160a01b038481166004830152838116602483015285169063e6a4390590604401602060405180830381865afa15801562000088573d6000803e3d6000fd5b505050506040513d601f19601f82011682018060405250810190620000ae9190620003f5565b6001600160a01b0316608081905260408051630dfe168160e01b81529051630dfe1681916004808201926020929091908290030181865afa158015620000f8573d6000803e3d6000fd5b505050506040513d601f19601f820116820180604052508101906200011e9190620003f5565b6001600160a01b031660a0816001600160a01b0316815250506080516001600160a01b031663d21220a76040518163ffffffff1660e01b8152600401602060405180830381865afa15801562000178573d6000803e3d6000fd5b505050506040513d601f19601f820116820180604052508101906200019e9190620003f5565b6001600160a01b031660c0816001600160a01b0316815250506080516001600160a01b0316635909c0d56040518163ffffffff1660e01b8152600401602060405180830381865afa158015620001f8573d6000803e3d6000fd5b505050506040513d601f19601f820116820180604052508101906200021e91906200041a565b6001819055506080516001600160a01b0316635a3d54936040518163ffffffff1660e01b8152600401602060405180830381865afa15801562000265573d6000803e3d6000fd5b505050506040513d601f19601f820116820180604052508101906200028b91906200041a565b6002819055506000806080516001600160a01b0316630902f1ac6040518163ffffffff1660e01b8152600401606060405180830381865afa158015620002d5573d6000803e3d6000fd5b505050506040513d601f19601f82011682018060405250810190620002fb91906200044c565b6003805463ffffffff191663ffffffff9290921691909117905590925090506001600160701b038216158015906200033c57506000816001600160701b0316115b6200037a5760405162461bcd60e51b815260206004820152600a60248201526932b6b83a3c96b830b4b960b11b604482015260640160405180910390fd5b505050505050620004a2565b80516001600160a01b03811681146200039e57600080fd5b919050565b60008060008060808587031215620003ba57600080fd5b620003c58562000386565b9350620003d56020860162000386565b9250620003e56040860162000386565b6060959095015193969295505050565b6000602082840312156200040857600080fd5b620004138262000386565b9392505050565b6000602082840312156200042d57600080fd5b5051919050565b80516001600160701b03811681146200039e57600080fd5b6000806000606084860312156200046257600080fd5b6200046d8462000434565b92506200047d6020850162000434565b9150604084015163ffffffff811681146200049757600080fd5b809150509250925092565b60805160a05160c051610aa6620004e6600039600081816101be015261026501526000818160b301526101ed01526000818161017201526103210152610aa66000f3fe608060405234801561001057600080fd5b50600436106100a95760003560e01c8063a2e6204511610071578063a2e6204514610150578063a6bb45391461015a578063a8aa1b311461016d578063c5700a0214610194578063d21220a7146101b9578063ef78d4fd146101e057600080fd5b80630dfe1681146100ae5780633ddac953146100f25780635909c0d5146101135780635a3d54931461011c5780635e6aaf2c14610125575b600080fd5b6100d57f000000000000000000000000000000000000000000000000000000000000000081565b6040516001600160a01b0390911681526020015b60405180910390f35b610105610100366004610903565b6101e9565b6040519081526020016100e9565b61010560015481565b61010560025481565b600554610138906001600160e01b031681565b6040516001600160e01b0390911681526020016100e9565b610158610317565b005b600454610138906001600160e01b031681565b6100d57f000000000000000000000000000000000000000000000000000000000000000081565b6003546101a49063ffffffff1681565b60405163ffffffff90911681526020016100e9565b6100d57f000000000000000000000000000000000000000000000000000000000000000081565b61010560005481565b60007f00000000000000000000000000000000000000000000000000000000000000006001600160a01b0316836001600160a01b031614156102635760408051602081019091526004546001600160e01b031681526102539061024c9084610479565b5160701c90565b6001600160901b03169050610311565b7f00000000000000000000000000000000000000000000000000000000000000006001600160a01b0316836001600160a01b031614156102c45760408051602081019091526005546001600160e01b031681526102539061024c9084610479565b60405162461bcd60e51b815260206004820152601a60248201527f554e4956324f5241434c453a20494e56414c49445f544f4b454e00000000000060448201526064015b60405180910390fd5b92915050565b60008060006103457f0000000000000000000000000000000000000000000000000000000000000000610517565b60035492955090935091506000906103639063ffffffff1683610951565b90506000548163ffffffff1610156103bd5760405162461bcd60e51b815260206004820152601f60248201527f554e4956324f5241434c453a20504552494f445f4e4f545f454c4150534544006044820152606401610308565b60405180602001604052808263ffffffff166001548703816103e1576103e1610976565b046001600160e01b039081169091529051600480546001600160e01b031916919092161790556040805160208101909152600254819063ffffffff84169086038161042e5761042e610976565b046001600160e01b039081169091529051600580546001600160e01b03191691909216179055506001929092556002556003805463ffffffff191663ffffffff909216919091179055565b60408051602081019091526000815260008215806104b6575083516001600160e01b0316836104a8818361098c565b92506104b490836109ab565b145b6105025760405162461bcd60e51b815260206004820152601960248201527f4669786564506f696e743a3a6d756c3a206f766572666c6f77000000000000006044820152606401610308565b60408051602081019091529081529392505050565b600080600061052461070e565b9050836001600160a01b0316635909c0d56040518163ffffffff1660e01b8152600401602060405180830381865afa158015610564573d6000803e3d6000fd5b505050506040513d601f19601f8201168201806040525081019061058891906109bf565b9250836001600160a01b0316635a3d54936040518163ffffffff1660e01b8152600401602060405180830381865afa1580156105c8573d6000803e3d6000fd5b505050506040513d601f19601f820116820180604052508101906105ec91906109bf565b91506000806000866001600160a01b0316630902f1ac6040518163ffffffff1660e01b8152600401606060405180830381865afa158015610631573d6000803e3d6000fd5b505050506040513d601f19601f8201168201806040525081019061065591906109f4565b9250925092508363ffffffff168163ffffffff161461070457600061067a8286610951565b90508063ffffffff1661069f846001600160701b0316866001600160701b0316610724565b516106b391906001600160e01b031661098c565b6106bd9088610a44565b96508063ffffffff166106e2856001600160701b0316856001600160701b0316610724565b516106f691906001600160e01b031661098c565b6107009087610a44565b9550505b5050509193909250565b600061071f64010000000042610a5c565b905090565b604080516020810190915260008152600082116107925760405162461bcd60e51b815260206004820152602660248201527f4669786564506f696e743a3a6672616374696f6e3a206469766973696f6e206260448201526579207a65726f60d01b6064820152608401610308565b826107ac5750604080516020810190915260008152610311565b6001600160901b0383116108435760006107ca83607086901b6109ab565b90506001600160e01b038111156108235760405162461bcd60e51b815260206004820152601e60248201527f4669786564506f696e743a3a6672616374696f6e3a206f766572666c6f7700006044820152606401610308565b6040518060200160405280826001600160e01b0316815250915050610311565b60006107ca84600160701b85600080806000198587098587029250828110838203039150508060001415610889576000841161087e57600080fd5b5082900490506108fc565b80841161089557600080fd5b6000848688096000868103871696879004966002600389028118808a02820302808a02820302808a02820302808a02820302808a02820302808a02909103029181900381900460010186841190950394909402919094039290920491909117919091029150505b9392505050565b6000806040838503121561091657600080fd5b82356001600160a01b038116811461092d57600080fd5b946020939093013593505050565b634e487b7160e01b600052601160045260246000fd5b600063ffffffff8381169083168181101561096e5761096e61093b565b039392505050565b634e487b7160e01b600052601260045260246000fd5b60008160001904831182151516156109a6576109a661093b565b500290565b6000826109ba576109ba610976565b500490565b6000602082840312156109d157600080fd5b5051919050565b80516001600160701b03811681146109ef57600080fd5b919050565b600080600060608486031215610a0957600080fd5b610a12846109d8565b9250610a20602085016109d8565b9150604084015163ffffffff81168114610a3957600080fd5b809150509250925092565b60008219821115610a5757610a5761093b565b500190565b600082610a6b57610a6b610976565b50069056fea264697066735822122081e60177bba54d4fff4ed444501e9afe4560a51adb70e70fd4ef9d41bbfe816b64736f6c634300080a0033",
          "opcodes": "PUSH1 0xE0 PUSH1 0x40 MSTORE CALLVALUE DUP1 ISZERO PUSH3 0x11 JUMPI PUSH1 0x0 DUP1 REVERT JUMPDEST POP PUSH1 0x40 MLOAD PUSH3 0xF8C CODESIZE SUB DUP1 PUSH3 0xF8C DUP4 CODECOPY DUP2 ADD PUSH1 0x40 DUP2 SWAP1 MSTORE PUSH3 0x34 SWAP2 PUSH3 0x3A3 JUMP JUMPDEST PUSH1 0x0 DUP2 SWAP1 SSTORE PUSH1 0x40 MLOAD PUSH4 0xE6A43905 PUSH1 0xE0 SHL DUP2 MSTORE PUSH1 0x1 PUSH1 0x1 PUSH1 0xA0 SHL SUB DUP5 DUP2 AND PUSH1 0x4 DUP4 ADD MSTORE DUP4 DUP2 AND PUSH1 0x24 DUP4 ADD MSTORE DUP6 AND SWAP1 PUSH4 0xE6A43905 SWAP1 PUSH1 0x44 ADD PUSH1 0x20 PUSH1 0x40 MLOAD DUP1 DUP4 SUB DUP2 DUP7 GAS STATICCALL ISZERO DUP1 ISZERO PUSH3 0x88 JUMPI RETURNDATASIZE PUSH1 0x0 DUP1 RETURNDATACOPY RETURNDATASIZE PUSH1 0x0 REVERT JUMPDEST POP POP POP POP PUSH1 0x40 MLOAD RETURNDATASIZE PUSH1 0x1F NOT PUSH1 0x1F DUP3 ADD AND DUP3 ADD DUP1 PUSH1 0x40 MSTORE POP DUP2 ADD SWAP1 PUSH3 0xAE SWAP2 SWAP1 PUSH3 0x3F5 JUMP JUMPDEST PUSH1 0x1 PUSH1 0x1 PUSH1 0xA0 SHL SUB AND PUSH1 0x80 DUP2 SWAP1 MSTORE PUSH1 0x40 DUP1 MLOAD PUSH4 0xDFE1681 PUSH1 0xE0 SHL DUP2 MSTORE SWAP1 MLOAD PUSH4 0xDFE1681 SWAP2 PUSH1 0x4 DUP1 DUP3 ADD SWAP3 PUSH1 0x20 SWAP3 SWAP1 SWAP2 SWAP1 DUP3 SWAP1 SUB ADD DUP2 DUP7 GAS STATICCALL ISZERO DUP1 ISZERO PUSH3 0xF8 JUMPI RETURNDATASIZE PUSH1 0x0 DUP1 RETURNDATACOPY RETURNDATASIZE PUSH1 0x0 REVERT JUMPDEST POP POP POP POP PUSH1 0x40 MLOAD RETURNDATASIZE PUSH1 0x1F NOT PUSH1 0x1F DUP3 ADD AND DUP3 ADD DUP1 PUSH1 0x40 MSTORE POP DUP2 ADD SWAP1 PUSH3 0x11E SWAP2 SWAP1 PUSH3 0x3F5 JUMP JUMPDEST PUSH1 0x1 PUSH1 0x1 PUSH1 0xA0 SHL SUB AND PUSH1 0xA0 DUP2 PUSH1 0x1 PUSH1 0x1 PUSH1 0xA0 SHL SUB AND DUP2 MSTORE POP POP PUSH1 0x80 MLOAD PUSH1 0x1 PUSH1 0x1 PUSH1 0xA0 SHL SUB AND PUSH4 0xD21220A7 PUSH1 0x40 MLOAD DUP2 PUSH4 0xFFFFFFFF AND PUSH1 0xE0 SHL DUP2 MSTORE PUSH1 0x4 ADD PUSH1 0x20 PUSH1 0x40 MLOAD DUP1 DUP4 SUB DUP2 DUP7 GAS STATICCALL ISZERO DUP1 ISZERO PUSH3 0x178 JUMPI RETURNDATASIZE PUSH1 0x0 DUP1 RETURNDATACOPY RETURNDATASIZE PUSH1 0x0 REVERT JUMPDEST POP POP POP POP PUSH1 0x40 MLOAD RETURNDATASIZE PUSH1 0x1F NOT PUSH1 0x1F DUP3 ADD AND DUP3 ADD DUP1 PUSH1 0x40 MSTORE POP DUP2 ADD SWAP1 PUSH3 0x19E SWAP2 SWAP1 PUSH3 0x3F5 JUMP JUMPDEST PUSH1 0x1 PUSH1 0x1 PUSH1 0xA0 SHL SUB AND PUSH1 0xC0 DUP2 PUSH1 0x1 PUSH1 0x1 PUSH1 0xA0 SHL SUB AND DUP2 MSTORE POP POP PUSH1 0x80 MLOAD PUSH1 0x1 PUSH1 0x1 PUSH1 0xA0 SHL SUB AND PUSH4 0x5909C0D5 PUSH1 0x40 MLOAD DUP2 PUSH4 0xFFFFFFFF AND PUSH1 0xE0 SHL DUP2 MSTORE PUSH1 0x4 ADD PUSH1 0x20 PUSH1 0x40 MLOAD DUP1 DUP4 SUB DUP2 DUP7 GAS STATICCALL ISZERO DUP1 ISZERO PUSH3 0x1F8 JUMPI RETURNDATASIZE PUSH1 0x0 DUP1 RETURNDATACOPY RETURNDATASIZE PUSH1 0x0 REVERT JUMPDEST POP POP POP POP PUSH1 0x40 MLOAD RETURNDATASIZE PUSH1 0x1F NOT PUSH1 0x1F DUP3 ADD AND DUP3 ADD DUP1 PUSH1 0x40 MSTORE POP DUP2 ADD SWAP1 PUSH3 0x21E SWAP2 SWAP1 PUSH3 0x41A JUMP JUMPDEST PUSH1 0x1 DUP2 SWAP1 SSTORE POP PUSH1 0x80 MLOAD PUSH1 0x1 PUSH1 0x1 PUSH1 0xA0 SHL SUB AND PUSH4 0x5A3D5493 PUSH1 0x40 MLOAD DUP2 PUSH4 0xFFFFFFFF AND PUSH1 0xE0 SHL DUP2 MSTORE PUSH1 0x4 ADD PUSH1 0x20 PUSH1 0x40 MLOAD DUP1 DUP4 SUB DUP2 DUP7 GAS STATICCALL ISZERO DUP1 ISZERO PUSH3 0x265 JUMPI RETURNDATASIZE PUSH1 0x0 DUP1 RETURNDATACOPY RETURNDATASIZE PUSH1 0x0 REVERT JUMPDEST POP POP POP POP PUSH1 0x40 MLOAD RETURNDATASIZE PUSH1 0x1F NOT PUSH1 0x1F DUP3 ADD AND DUP3 ADD DUP1 PUSH1 0x40 MSTORE POP DUP2 ADD SWAP1 PUSH3 0x28B SWAP2 SWAP1 PUSH3 0x41A JUMP JUMPDEST PUSH1 0x2 DUP2 SWAP1 SSTORE POP PUSH1 0x0 DUP1 PUSH1 0x80 MLOAD PUSH1 0x1 PUSH1 0x1 PUSH1 0xA0 SHL SUB AND PUSH4 0x902F1AC PUSH1 0x40 MLOAD DUP2 PUSH4 0xFFFFFFFF AND PUSH1 0xE0 SHL DUP2 MSTORE PUSH1 0x4 ADD PUSH1 0x60 PUSH1 0x40 MLOAD DUP1 DUP4 SUB DUP2 DUP7 GAS STATICCALL ISZERO DUP1 ISZERO PUSH3 0x2D5 JUMPI RETURNDATASIZE PUSH1 0x0 DUP1 RETURNDATACOPY RETURNDATASIZE PUSH1 0x0 REVERT JUMPDEST POP POP POP POP PUSH1 0x40 MLOAD RETURNDATASIZE PUSH1 0x1F NOT PUSH1 0x1F DUP3 ADD AND DUP3 ADD DUP1 PUSH1 0x40 MSTORE POP DUP2 ADD SWAP1 PUSH3 0x2FB SWAP2 SWAP1 PUSH3 0x44C JUMP JUMPDEST PUSH1 0x3 DUP1 SLOAD PUSH4 0xFFFFFFFF NOT AND PUSH4 0xFFFFFFFF SWAP3 SWAP1 SWAP3 AND SWAP2 SWAP1 SWAP2 OR SWAP1 SSTORE SWAP1 SWAP3 POP SWAP1 POP PUSH1 0x1 PUSH1 0x1 PUSH1 0x70 SHL SUB DUP3 AND ISZERO DUP1 ISZERO SWAP1 PUSH3 0x33C JUMPI POP PUSH1 0x0 DUP2 PUSH1 0x1 PUSH1 0x1 PUSH1 0x70 SHL SUB AND GT JUMPDEST PUSH3 0x37A JUMPI PUSH1 0x40 MLOAD PUSH3 0x461BCD PUSH1 0xE5 SHL DUP2 MSTORE PUSH1 0x20 PUSH1 0x4 DUP3 ADD MSTORE PUSH1 0xA PUSH1 0x24 DUP3 ADD MSTORE PUSH10 0x32B6B83A3C96B830B4B9 PUSH1 0xB1 SHL PUSH1 0x44 DUP3 ADD MSTORE PUSH1 0x64 ADD PUSH1 0x40 MLOAD DUP1 SWAP2 SUB SWAP1 REVERT JUMPDEST POP POP POP POP POP POP PUSH3 0x4A2 JUMP JUMPDEST DUP1 MLOAD PUSH1 0x1 PUSH1 0x1 PUSH1 0xA0 SHL SUB DUP2 AND DUP2 EQ PUSH3 0x39E JUMPI PUSH1 0x0 DUP1 REVERT JUMPDEST SWAP2 SWAP1 POP JUMP JUMPDEST PUSH1 0x0 DUP1 PUSH1 0x0 DUP1 PUSH1 0x80 DUP6 DUP8 SUB SLT ISZERO PUSH3 0x3BA JUMPI PUSH1 0x0 DUP1 REVERT JUMPDEST PUSH3 0x3C5 DUP6 PUSH3 0x386 JUMP JUMPDEST SWAP4 POP PUSH3 0x3D5 PUSH1 0x20 DUP7 ADD PUSH3 0x386 JUMP JUMPDEST SWAP3 POP PUSH3 0x3E5 PUSH1 0x40 DUP7 ADD PUSH3 0x386 JUMP JUMPDEST PUSH1 0x60 SWAP6 SWAP1 SWAP6 ADD MLOAD SWAP4 SWAP7 SWAP3 SWAP6 POP POP POP JUMP JUMPDEST PUSH1 0x0 PUSH1 0x20 DUP3 DUP5 SUB SLT ISZERO PUSH3 0x408 JUMPI PUSH1 0x0 DUP1 REVERT JUMPDEST PUSH3 0x413 DUP3 PUSH3 0x386 JUMP JUMPDEST SWAP4 SWAP3 POP POP POP JUMP JUMPDEST PUSH1 0x0 PUSH1 0x20 DUP3 DUP5 SUB SLT ISZERO PUSH3 0x42D JUMPI PUSH1 0x0 DUP1 REVERT JUMPDEST POP MLOAD SWAP2 SWAP1 POP JUMP JUMPDEST DUP1 MLOAD PUSH1 0x1 PUSH1 0x1 PUSH1 0x70 SHL SUB DUP2 AND DUP2 EQ PUSH3 0x39E JUMPI PUSH1 0x0 DUP1 REVERT JUMPDEST PUSH1 0x0 DUP1 PUSH1 0x0 PUSH1 0x60 DUP5 DUP7 SUB SLT ISZERO PUSH3 0x462 JUMPI PUSH1 0x0 DUP1 REVERT JUMPDEST PUSH3 0x46D DUP5 PUSH3 0x434 JUMP JUMPDEST SWAP3 POP PUSH3 0x47D PUSH1 0x20 DUP6 ADD PUSH3 0x434 JUMP JUMPDEST SWAP2 POP PUSH1 0x40 DUP5 ADD MLOAD PUSH4 0xFFFFFFFF DUP2 AND DUP2 EQ PUSH3 0x497 JUMPI PUSH1 0x0 DUP1 REVERT JUMPDEST DUP1 SWAP2 POP POP SWAP3 POP SWAP3 POP SWAP3 JUMP JUMPDEST PUSH1 0x80 MLOAD PUSH1 0xA0 MLOAD PUSH1 0xC0 MLOAD PUSH2 0xAA6 PUSH3 0x4E6 PUSH1 0x0 CODECOPY PUSH1 0x0 DUP2 DUP2 PUSH2 0x1BE ADD MSTORE PUSH2 0x265 ADD MSTORE PUSH1 0x0 DUP2 DUP2 PUSH1 0xB3 ADD MSTORE PUSH2 0x1ED ADD MSTORE PUSH1 0x0 DUP2 DUP2 PUSH2 0x172 ADD MSTORE PUSH2 0x321 ADD MSTORE PUSH2 0xAA6 PUSH1 0x0 RETURN INVALID PUSH1 0x80 PUSH1 0x40 MSTORE CALLVALUE DUP1 ISZERO PUSH2 0x10 JUMPI PUSH1 0x0 DUP1 REVERT JUMPDEST POP PUSH1 0x4 CALLDATASIZE LT PUSH2 0xA9 JUMPI PUSH1 0x0 CALLDATALOAD PUSH1 0xE0 SHR DUP1 PUSH4 0xA2E62045 GT PUSH2 0x71 JUMPI DUP1 PUSH4 0xA2E62045 EQ PUSH2 0x150 JUMPI DUP1 PUSH4 0xA6BB4539 EQ PUSH2 0x15A JUMPI DUP1 PUSH4 0xA8AA1B31 EQ PUSH2 0x16D JUMPI DUP1 PUSH4 0xC5700A02 EQ PUSH2 0x194 JUMPI DUP1 PUSH4 0xD21220A7 EQ PUSH2 0x1B9 JUMPI DUP1 PUSH4 0xEF78D4FD EQ PUSH2 0x1E0 JUMPI PUSH1 0x0 DUP1 REVERT JUMPDEST DUP1 PUSH4 0xDFE1681 EQ PUSH2 0xAE JUMPI DUP1 PUSH4 0x3DDAC953 EQ PUSH2 0xF2 JUMPI DUP1 PUSH4 0x5909C0D5 EQ PUSH2 0x113 JUMPI DUP1 PUSH4 0x5A3D5493 EQ PUSH2 0x11C JUMPI DUP1 PUSH4 0x5E6AAF2C EQ PUSH2 0x125 JUMPI JUMPDEST PUSH1 0x0 DUP1 REVERT JUMPDEST PUSH2 0xD5 PUSH32 0x0 DUP2 JUMP JUMPDEST PUSH1 0x40 MLOAD PUSH1 0x1 PUSH1 0x1 PUSH1 0xA0 SHL SUB SWAP1 SWAP2 AND DUP2 MSTORE PUSH1 0x20 ADD JUMPDEST PUSH1 0x40 MLOAD DUP1 SWAP2 SUB SWAP1 RETURN JUMPDEST PUSH2 0x105 PUSH2 0x100 CALLDATASIZE PUSH1 0x4 PUSH2 0x903 JUMP JUMPDEST PUSH2 0x1E9 JUMP JUMPDEST PUSH1 0x40 MLOAD SWAP1 DUP2 MSTORE PUSH1 0x20 ADD PUSH2 0xE9 JUMP JUMPDEST PUSH2 0x105 PUSH1 0x1 SLOAD DUP2 JUMP JUMPDEST PUSH2 0x105 PUSH1 0x2 SLOAD DUP2 JUMP JUMPDEST PUSH1 0x5 SLOAD PUSH2 0x138 SWAP1 PUSH1 0x1 PUSH1 0x1 PUSH1 0xE0 SHL SUB AND DUP2 JUMP JUMPDEST PUSH1 0x40 MLOAD PUSH1 0x1 PUSH1 0x1 PUSH1 0xE0 SHL SUB SWAP1 SWAP2 AND DUP2 MSTORE PUSH1 0x20 ADD PUSH2 0xE9 JUMP JUMPDEST PUSH2 0x158 PUSH2 0x317 JUMP JUMPDEST STOP JUMPDEST PUSH1 0x4 SLOAD PUSH2 0x138 SWAP1 PUSH1 0x1 PUSH1 0x1 PUSH1 0xE0 SHL SUB AND DUP2 JUMP JUMPDEST PUSH2 0xD5 PUSH32 0x0 DUP2 JUMP JUMPDEST PUSH1 0x3 SLOAD PUSH2 0x1A4 SWAP1 PUSH4 0xFFFFFFFF AND DUP2 JUMP JUMPDEST PUSH1 0x40 MLOAD PUSH4 0xFFFFFFFF SWAP1 SWAP2 AND DUP2 MSTORE PUSH1 0x20 ADD PUSH2 0xE9 JUMP JUMPDEST PUSH2 0xD5 PUSH32 0x0 DUP2 JUMP JUMPDEST PUSH2 0x105 PUSH1 0x0 SLOAD DUP2 JUMP JUMPDEST PUSH1 0x0 PUSH32 0x0 PUSH1 0x1 PUSH1 0x1 PUSH1 0xA0 SHL SUB AND DUP4 PUSH1 0x1 PUSH1 0x1 PUSH1 0xA0 SHL SUB AND EQ ISZERO PUSH2 0x263 JUMPI PUSH1 0x40 DUP1 MLOAD PUSH1 0x20 DUP2 ADD SWAP1 SWAP2 MSTORE PUSH1 0x4 SLOAD PUSH1 0x1 PUSH1 0x1 PUSH1 0xE0 SHL SUB AND DUP2 MSTORE PUSH2 0x253 SWAP1 PUSH2 0x24C SWAP1 DUP5 PUSH2 0x479 JUMP JUMPDEST MLOAD PUSH1 0x70 SHR SWAP1 JUMP JUMPDEST PUSH1 0x1 PUSH1 0x1 PUSH1 0x90 SHL SUB AND SWAP1 POP PUSH2 0x311 JUMP JUMPDEST PUSH32 0x0 PUSH1 0x1 PUSH1 0x1 PUSH1 0xA0 SHL SUB AND DUP4 PUSH1 0x1 PUSH1 0x1 PUSH1 0xA0 SHL SUB AND EQ ISZERO PUSH2 0x2C4 JUMPI PUSH1 0x40 DUP1 MLOAD PUSH1 0x20 DUP2 ADD SWAP1 SWAP2 MSTORE PUSH1 0x5 SLOAD PUSH1 0x1 PUSH1 0x1 PUSH1 0xE0 SHL SUB AND DUP2 MSTORE PUSH2 0x253 SWAP1 PUSH2 0x24C SWAP1 DUP5 PUSH2 0x479 JUMP JUMPDEST PUSH1 0x40 MLOAD PUSH3 0x461BCD PUSH1 0xE5 SHL DUP2 MSTORE PUSH1 0x20 PUSH1 0x4 DUP3 ADD MSTORE PUSH1 0x1A PUSH1 0x24 DUP3 ADD MSTORE PUSH32 0x554E4956324F5241434C453A20494E56414C49445F544F4B454E000000000000 PUSH1 0x44 DUP3 ADD MSTORE PUSH1 0x64 ADD JUMPDEST PUSH1 0x40 MLOAD DUP1 SWAP2 SUB SWAP1 REVERT JUMPDEST SWAP3 SWAP2 POP POP JUMP JUMPDEST PUSH1 0x0 DUP1 PUSH1 0x0 PUSH2 0x345 PUSH32 0x0 PUSH2 0x517 JUMP JUMPDEST PUSH1 0x3 SLOAD SWAP3 SWAP6 POP SWAP1 SWAP4 POP SWAP2 POP PUSH1 0x0 SWAP1 PUSH2 0x363 SWAP1 PUSH4 0xFFFFFFFF AND DUP4 PUSH2 0x951 JUMP JUMPDEST SWAP1 POP PUSH1 0x0 SLOAD DUP2 PUSH4 0xFFFFFFFF AND LT ISZERO PUSH2 0x3BD JUMPI PUSH1 0x40 MLOAD PUSH3 0x461BCD PUSH1 0xE5 SHL DUP2 MSTORE PUSH1 0x20 PUSH1 0x4 DUP3 ADD MSTORE PUSH1 0x1F PUSH1 0x24 DUP3 ADD MSTORE PUSH32 0x554E4956324F5241434C453A20504552494F445F4E4F545F454C415053454400 PUSH1 0x44 DUP3 ADD MSTORE PUSH1 0x64 ADD PUSH2 0x308 JUMP JUMPDEST PUSH1 0x40 MLOAD DUP1 PUSH1 0x20 ADD PUSH1 0x40 MSTORE DUP1 DUP3 PUSH4 0xFFFFFFFF AND PUSH1 0x1 SLOAD DUP8 SUB DUP2 PUSH2 0x3E1 JUMPI PUSH2 0x3E1 PUSH2 0x976 JUMP JUMPDEST DIV PUSH1 0x1 PUSH1 0x1 PUSH1 0xE0 SHL SUB SWAP1 DUP2 AND SWAP1 SWAP2 MSTORE SWAP1 MLOAD PUSH1 0x4 DUP1 SLOAD PUSH1 0x1 PUSH1 0x1 PUSH1 0xE0 SHL SUB NOT AND SWAP2 SWAP1 SWAP3 AND OR SWAP1 SSTORE PUSH1 0x40 DUP1 MLOAD PUSH1 0x20 DUP2 ADD SWAP1 SWAP2 MSTORE PUSH1 0x2 SLOAD DUP2 SWAP1 PUSH4 0xFFFFFFFF DUP5 AND SWAP1 DUP7 SUB DUP2 PUSH2 0x42E JUMPI PUSH2 0x42E PUSH2 0x976 JUMP JUMPDEST DIV PUSH1 0x1 PUSH1 0x1 PUSH1 0xE0 SHL SUB SWAP1 DUP2 AND SWAP1 SWAP2 MSTORE SWAP1 MLOAD PUSH1 0x5 DUP1 SLOAD PUSH1 0x1 PUSH1 0x1 PUSH1 0xE0 SHL SUB NOT AND SWAP2 SWAP1 SWAP3 AND OR SWAP1 SSTORE POP PUSH1 0x1 SWAP3 SWAP1 SWAP3 SSTORE PUSH1 0x2 SSTORE PUSH1 0x3 DUP1 SLOAD PUSH4 0xFFFFFFFF NOT AND PUSH4 0xFFFFFFFF SWAP1 SWAP3 AND SWAP2 SWAP1 SWAP2 OR SWAP1 SSTORE JUMP JUMPDEST PUSH1 0x40 DUP1 MLOAD PUSH1 0x20 DUP2 ADD SWAP1 SWAP2 MSTORE PUSH1 0x0 DUP2 MSTORE PUSH1 0x0 DUP3 ISZERO DUP1 PUSH2 0x4B6 JUMPI POP DUP4 MLOAD PUSH1 0x1 PUSH1 0x1 PUSH1 0xE0 SHL SUB AND DUP4 PUSH2 0x4A8 DUP2 DUP4 PUSH2 0x98C JUMP JUMPDEST SWAP3 POP PUSH2 0x4B4 SWAP1 DUP4 PUSH2 0x9AB JUMP JUMPDEST EQ JUMPDEST PUSH2 0x502 JUMPI PUSH1 0x40 MLOAD PUSH3 0x461BCD PUSH1 0xE5 SHL DUP2 MSTORE PUSH1 0x20 PUSH1 0x4 DUP3 ADD MSTORE PUSH1 0x19 PUSH1 0x24 DUP3 ADD MSTORE PUSH32 0x4669786564506F696E743A3A6D756C3A206F766572666C6F7700000000000000 PUSH1 0x44 DUP3 ADD MSTORE PUSH1 0x64 ADD PUSH2 0x308 JUMP JUMPDEST PUSH1 0x40 DUP1 MLOAD PUSH1 0x20 DUP2 ADD SWAP1 SWAP2 MSTORE SWAP1 DUP2 MSTORE SWAP4 SWAP3 POP POP POP JUMP JUMPDEST PUSH1 0x0 DUP1 PUSH1 0x0 PUSH2 0x524 PUSH2 0x70E JUMP JUMPDEST SWAP1 POP DUP4 PUSH1 0x1 PUSH1 0x1 PUSH1 0xA0 SHL SUB AND PUSH4 0x5909C0D5 PUSH1 0x40 MLOAD DUP2 PUSH4 0xFFFFFFFF AND PUSH1 0xE0 SHL DUP2 MSTORE PUSH1 0x4 ADD PUSH1 0x20 PUSH1 0x40 MLOAD DUP1 DUP4 SUB DUP2 DUP7 GAS STATICCALL ISZERO DUP1 ISZERO PUSH2 0x564 JUMPI RETURNDATASIZE PUSH1 0x0 DUP1 RETURNDATACOPY RETURNDATASIZE PUSH1 0x0 REVERT JUMPDEST POP POP POP POP PUSH1 0x40 MLOAD RETURNDATASIZE PUSH1 0x1F NOT PUSH1 0x1F DUP3 ADD AND DUP3 ADD DUP1 PUSH1 0x40 MSTORE POP DUP2 ADD SWAP1 PUSH2 0x588 SWAP2 SWAP1 PUSH2 0x9BF JUMP JUMPDEST SWAP3 POP DUP4 PUSH1 0x1 PUSH1 0x1 PUSH1 0xA0 SHL SUB AND PUSH4 0x5A3D5493 PUSH1 0x40 MLOAD DUP2 PUSH4 0xFFFFFFFF AND PUSH1 0xE0 SHL DUP2 MSTORE PUSH1 0x4 ADD PUSH1 0x20 PUSH1 0x40 MLOAD DUP1 DUP4 SUB DUP2 DUP7 GAS STATICCALL ISZERO DUP1 ISZERO PUSH2 0x5C8 JUMPI RETURNDATASIZE PUSH1 0x0 DUP1 RETURNDATACOPY RETURNDATASIZE PUSH1 0x0 REVERT JUMPDEST POP POP POP POP PUSH1 0x40 MLOAD RETURNDATASIZE PUSH1 0x1F NOT PUSH1 0x1F DUP3 ADD AND DUP3 ADD DUP1 PUSH1 0x40 MSTORE POP DUP2 ADD SWAP1 PUSH2 0x5EC SWAP2 SWAP1 PUSH2 0x9BF JUMP JUMPDEST SWAP2 POP PUSH1 0x0 DUP1 PUSH1 0x0 DUP7 PUSH1 0x1 PUSH1 0x1 PUSH1 0xA0 SHL SUB AND PUSH4 0x902F1AC PUSH1 0x40 MLOAD DUP2 PUSH4 0xFFFFFFFF AND PUSH1 0xE0 SHL DUP2 MSTORE PUSH1 0x4 ADD PUSH1 0x60 PUSH1 0x40 MLOAD DUP1 DUP4 SUB DUP2 DUP7 GAS STATICCALL ISZERO DUP1 ISZERO PUSH2 0x631 JUMPI RETURNDATASIZE PUSH1 0x0 DUP1 RETURNDATACOPY RETURNDATASIZE PUSH1 0x0 REVERT JUMPDEST POP POP POP POP PUSH1 0x40 MLOAD RETURNDATASIZE PUSH1 0x1F NOT PUSH1 0x1F DUP3 ADD AND DUP3 ADD DUP1 PUSH1 0x40 MSTORE POP DUP2 ADD SWAP1 PUSH2 0x655 SWAP2 SWAP1 PUSH2 0x9F4 JUMP JUMPDEST SWAP3 POP SWAP3 POP SWAP3 POP DUP4 PUSH4 0xFFFFFFFF AND DUP2 PUSH4 0xFFFFFFFF AND EQ PUSH2 0x704 JUMPI PUSH1 0x0 PUSH2 0x67A DUP3 DUP7 PUSH2 0x951 JUMP JUMPDEST SWAP1 POP DUP1 PUSH4 0xFFFFFFFF AND PUSH2 0x69F DUP5 PUSH1 0x1 PUSH1 0x1 PUSH1 0x70 SHL SUB AND DUP7 PUSH1 0x1 PUSH1 0x1 PUSH1 0x70 SHL SUB AND PUSH2 0x724 JUMP JUMPDEST MLOAD PUSH2 0x6B3 SWAP2 SWAP1 PUSH1 0x1 PUSH1 0x1 PUSH1 0xE0 SHL SUB AND PUSH2 0x98C JUMP JUMPDEST PUSH2 0x6BD SWAP1 DUP9 PUSH2 0xA44 JUMP JUMPDEST SWAP7 POP DUP1 PUSH4 0xFFFFFFFF AND PUSH2 0x6E2 DUP6 PUSH1 0x1 PUSH1 0x1 PUSH1 0x70 SHL SUB AND DUP6 PUSH1 0x1 PUSH1 0x1 PUSH1 0x70 SHL SUB AND PUSH2 0x724 JUMP JUMPDEST MLOAD PUSH2 0x6F6 SWAP2 SWAP1 PUSH1 0x1 PUSH1 0x1 PUSH1 0xE0 SHL SUB AND PUSH2 0x98C JUMP JUMPDEST PUSH2 0x700 SWAP1 DUP8 PUSH2 0xA44 JUMP JUMPDEST SWAP6 POP POP JUMPDEST POP POP POP SWAP2 SWAP4 SWAP1 SWAP3 POP JUMP JUMPDEST PUSH1 0x0 PUSH2 0x71F PUSH5 0x100000000 TIMESTAMP PUSH2 0xA5C JUMP JUMPDEST SWAP1 POP SWAP1 JUMP JUMPDEST PUSH1 0x40 DUP1 MLOAD PUSH1 0x20 DUP2 ADD SWAP1 SWAP2 MSTORE PUSH1 0x0 DUP2 MSTORE PUSH1 0x0 DUP3 GT PUSH2 0x792 JUMPI PUSH1 0x40 MLOAD PUSH3 0x461BCD PUSH1 0xE5 SHL DUP2 MSTORE PUSH1 0x20 PUSH1 0x4 DUP3 ADD MSTORE PUSH1 0x26 PUSH1 0x24 DUP3 ADD MSTORE PUSH32 0x4669786564506F696E743A3A6672616374696F6E3A206469766973696F6E2062 PUSH1 0x44 DUP3 ADD MSTORE PUSH6 0x79207A65726F PUSH1 0xD0 SHL PUSH1 0x64 DUP3 ADD MSTORE PUSH1 0x84 ADD PUSH2 0x308 JUMP JUMPDEST DUP3 PUSH2 0x7AC JUMPI POP PUSH1 0x40 DUP1 MLOAD PUSH1 0x20 DUP2 ADD SWAP1 SWAP2 MSTORE PUSH1 0x0 DUP2 MSTORE PUSH2 0x311 JUMP JUMPDEST PUSH1 0x1 PUSH1 0x1 PUSH1 0x90 SHL SUB DUP4 GT PUSH2 0x843 JUMPI PUSH1 0x0 PUSH2 0x7CA DUP4 PUSH1 0x70 DUP7 SWAP1 SHL PUSH2 0x9AB JUMP JUMPDEST SWAP1 POP PUSH1 0x1 PUSH1 0x1 PUSH1 0xE0 SHL SUB DUP2 GT ISZERO PUSH2 0x823 JUMPI PUSH1 0x40 MLOAD PUSH3 0x461BCD PUSH1 0xE5 SHL DUP2 MSTORE PUSH1 0x20 PUSH1 0x4 DUP3 ADD MSTORE PUSH1 0x1E PUSH1 0x24 DUP3 ADD MSTORE PUSH32 0x4669786564506F696E743A3A6672616374696F6E3A206F766572666C6F770000 PUSH1 0x44 DUP3 ADD MSTORE PUSH1 0x64 ADD PUSH2 0x308 JUMP JUMPDEST PUSH1 0x40 MLOAD DUP1 PUSH1 0x20 ADD PUSH1 0x40 MSTORE DUP1 DUP3 PUSH1 0x1 PUSH1 0x1 PUSH1 0xE0 SHL SUB AND DUP2 MSTORE POP SWAP2 POP POP PUSH2 0x311 JUMP JUMPDEST PUSH1 0x0 PUSH2 0x7CA DUP5 PUSH1 0x1 PUSH1 0x70 SHL DUP6 PUSH1 0x0 DUP1 DUP1 PUSH1 0x0 NOT DUP6 DUP8 MULMOD DUP6 DUP8 MUL SWAP3 POP DUP3 DUP2 LT DUP4 DUP3 SUB SUB SWAP2 POP POP DUP1 PUSH1 0x0 EQ ISZERO PUSH2 0x889 JUMPI PUSH1 0x0 DUP5 GT PUSH2 0x87E JUMPI PUSH1 0x0 DUP1 REVERT JUMPDEST POP DUP3 SWAP1 DIV SWAP1 POP PUSH2 0x8FC JUMP JUMPDEST DUP1 DUP5 GT PUSH2 0x895 JUMPI PUSH1 0x0 DUP1 REVERT JUMPDEST PUSH1 0x0 DUP5 DUP7 DUP9 MULMOD PUSH1 0x0 DUP7 DUP2 SUB DUP8 AND SWAP7 DUP8 SWAP1 DIV SWAP7 PUSH1 0x2 PUSH1 0x3 DUP10 MUL DUP2 XOR DUP1 DUP11 MUL DUP3 SUB MUL DUP1 DUP11 MUL DUP3 SUB MUL DUP1 DUP11 MUL DUP3 SUB MUL DUP1 DUP11 MUL DUP3 SUB MUL DUP1 DUP11 MUL DUP3 SUB MUL DUP1 DUP11 MUL SWAP1 SWAP2 SUB MUL SWAP2 DUP2 SWAP1 SUB DUP2 SWAP1 DIV PUSH1 0x1 ADD DUP7 DUP5 GT SWAP1 SWAP6 SUB SWAP5 SWAP1 SWAP5 MUL SWAP2 SWAP1 SWAP5 SUB SWAP3 SWAP1 SWAP3 DIV SWAP2 SWAP1 SWAP2 OR SWAP2 SWAP1 SWAP2 MUL SWAP2 POP POP JUMPDEST SWAP4 SWAP3 POP POP POP JUMP JUMPDEST PUSH1 0x0 DUP1 PUSH1 0x40 DUP4 DUP6 SUB SLT ISZERO PUSH2 0x916 JUMPI PUSH1 0x0 DUP1 REVERT JUMPDEST DUP3 CALLDATALOAD PUSH1 0x1 PUSH1 0x1 PUSH1 0xA0 SHL SUB DUP2 AND DUP2 EQ PUSH2 0x92D JUMPI PUSH1 0x0 DUP1 REVERT JUMPDEST SWAP5 PUSH1 0x20 SWAP4 SWAP1 SWAP4 ADD CALLDATALOAD SWAP4 POP POP POP JUMP JUMPDEST PUSH4 0x4E487B71 PUSH1 0xE0 SHL PUSH1 0x0 MSTORE PUSH1 0x11 PUSH1 0x4 MSTORE PUSH1 0x24 PUSH1 0x0 REVERT JUMPDEST PUSH1 0x0 PUSH4 0xFFFFFFFF DUP4 DUP2 AND SWAP1 DUP4 AND DUP2 DUP2 LT ISZERO PUSH2 0x96E JUMPI PUSH2 0x96E PUSH2 0x93B JUMP JUMPDEST SUB SWAP4 SWAP3 POP POP POP JUMP JUMPDEST PUSH4 0x4E487B71 PUSH1 0xE0 SHL PUSH1 0x0 MSTORE PUSH1 0x12 PUSH1 0x4 MSTORE PUSH1 0x24 PUSH1 0x0 REVERT JUMPDEST PUSH1 0x0 DUP2 PUSH1 0x0 NOT DIV DUP4 GT DUP3 ISZERO ISZERO AND ISZERO PUSH2 0x9A6 JUMPI PUSH2 0x9A6 PUSH2 0x93B JUMP JUMPDEST POP MUL SWAP1 JUMP JUMPDEST PUSH1 0x0 DUP3 PUSH2 0x9BA JUMPI PUSH2 0x9BA PUSH2 0x976 JUMP JUMPDEST POP DIV SWAP1 JUMP JUMPDEST PUSH1 0x0 PUSH1 0x20 DUP3 DUP5 SUB SLT ISZERO PUSH2 0x9D1 JUMPI PUSH1 0x0 DUP1 REVERT JUMPDEST POP MLOAD SWAP2 SWAP1 POP JUMP JUMPDEST DUP1 MLOAD PUSH1 0x1 PUSH1 0x1 PUSH1 0x70 SHL SUB DUP2 AND DUP2 EQ PUSH2 0x9EF JUMPI PUSH1 0x0 DUP1 REVERT JUMPDEST SWAP2 SWAP1 POP JUMP JUMPDEST PUSH1 0x0 DUP1 PUSH1 0x0 PUSH1 0x60 DUP5 DUP7 SUB SLT ISZERO PUSH2 0xA09 JUMPI PUSH1 0x0 DUP1 REVERT JUMPDEST PUSH2 0xA12 DUP5 PUSH2 0x9D8 JUMP JUMPDEST SWAP3 POP PUSH2 0xA20 PUSH1 0x20 DUP6 ADD PUSH2 0x9D8 JUMP JUMPDEST SWAP2 POP PUSH1 0x40 DUP5 ADD MLOAD PUSH4 0xFFFFFFFF DUP2 AND DUP2 EQ PUSH2 0xA39 JUMPI PUSH1 0x0 DUP1 REVERT JUMPDEST DUP1 SWAP2 POP POP SWAP3 POP SWAP3 POP SWAP3 JUMP JUMPDEST PUSH1 0x0 DUP3 NOT DUP3 GT ISZERO PUSH2 0xA57 JUMPI PUSH2 0xA57 PUSH2 0x93B JUMP JUMPDEST POP ADD SWAP1 JUMP JUMPDEST PUSH1 0x0 DUP3 PUSH2 0xA6B JUMPI PUSH2 0xA6B PUSH2 0x976 JUMP JUMPDEST POP MOD SWAP1 JUMP INVALID LOG2 PUSH5 0x6970667358 0x22 SLT KECCAK256 DUP2 0xE6 ADD PUSH24 0xBBA54D4FFF4ED444501E9AFE4560A51ADB70E70FD4EF9D41 0xBB INVALID DUP2 PUSH12 0x64736F6C634300080A003300 "
        },
        "methodIdentifiers": {
          "blockTimestampLast()": "c5700a02",
          "consult(address,uint256)": "3ddac953",
          "pair()": "a8aa1b31",
          "period()": "ef78d4fd",
          "price0Average()": "a6bb4539",
          "price0CumulativeLast()": "5909c0d5",
          "price1Average()": "5e6aaf2c",
          "price1CumulativeLast()": "5a3d5493",
          "token0()": "0dfe1681",
          "token1()": "d21220a7",
          "update()": "a2e62045"
        }
      }
    }
  }
}