{
  "contracts/oracles/DfxCadTWAP.sol": {
    "DfxCadTWAP": {
      "abi": [
        {
          "inputs": [
            {
              "internalType": "address",
              "name": "_admin",
              "type": "address"
            }
          ],
          "stateMutability": "nonpayable",
          "type": "constructor"
        },
        {
          "anonymous": false,
          "inputs": [
            {
              "indexed": true,
              "internalType": "bytes32",
              "name": "role",
              "type": "bytes32"
            },
            {
              "indexed": true,
              "internalType": "bytes32",
              "name": "previousAdminRole",
              "type": "bytes32"
            },
            {
              "indexed": true,
              "internalType": "bytes32",
              "name": "newAdminRole",
              "type": "bytes32"
            }
          ],
          "name": "RoleAdminChanged",
          "type": "event"
        },
        {
          "anonymous": false,
          "inputs": [
            {
              "indexed": true,
              "internalType": "bytes32",
              "name": "role",
              "type": "bytes32"
            },
            {
              "indexed": true,
              "internalType": "address",
              "name": "account",
              "type": "address"
            },
            {
              "indexed": true,
              "internalType": "address",
              "name": "sender",
              "type": "address"
            }
          ],
          "name": "RoleGranted",
          "type": "event"
        },
        {
          "anonymous": false,
          "inputs": [
            {
              "indexed": true,
              "internalType": "bytes32",
              "name": "role",
              "type": "bytes32"
            },
            {
              "indexed": true,
              "internalType": "address",
              "name": "account",
              "type": "address"
            },
            {
              "indexed": true,
              "internalType": "address",
              "name": "sender",
              "type": "address"
            }
          ],
          "name": "RoleRevoked",
          "type": "event"
        },
        {
          "inputs": [],
          "name": "DEFAULT_ADMIN_ROLE",
          "outputs": [
            {
              "internalType": "bytes32",
              "name": "",
              "type": "bytes32"
            }
          ],
          "stateMutability": "view",
          "type": "function"
        },
        {
          "inputs": [],
          "name": "SUDO",
          "outputs": [
            {
              "internalType": "bytes32",
              "name": "",
              "type": "bytes32"
            }
          ],
          "stateMutability": "view",
          "type": "function"
        },
        {
          "inputs": [],
          "name": "SUDO_ADMIN",
          "outputs": [
            {
              "internalType": "bytes32",
              "name": "",
              "type": "bytes32"
            }
          ],
          "stateMutability": "view",
          "type": "function"
        },
        {
          "inputs": [],
          "name": "blockTimestampLast",
          "outputs": [
            {
              "internalType": "uint32",
              "name": "",
              "type": "uint32"
            }
          ],
          "stateMutability": "view",
          "type": "function"
        },
        {
          "inputs": [
            {
              "internalType": "address",
              "name": "token",
              "type": "address"
            },
            {
              "internalType": "uint256",
              "name": "amountIn",
              "type": "uint256"
            }
          ],
          "name": "consult",
          "outputs": [
            {
              "internalType": "uint256",
              "name": "",
              "type": "uint256"
            }
          ],
          "stateMutability": "view",
          "type": "function"
        },
        {
          "inputs": [
            {
              "internalType": "bytes32",
              "name": "role",
              "type": "bytes32"
            }
          ],
          "name": "getRoleAdmin",
          "outputs": [
            {
              "internalType": "bytes32",
              "name": "",
              "type": "bytes32"
            }
          ],
          "stateMutability": "view",
          "type": "function"
        },
        {
          "inputs": [
            {
              "internalType": "bytes32",
              "name": "role",
              "type": "bytes32"
            },
            {
              "internalType": "address",
              "name": "account",
              "type": "address"
            }
          ],
          "name": "grantRole",
          "outputs": [],
          "stateMutability": "nonpayable",
          "type": "function"
        },
        {
          "inputs": [
            {
              "internalType": "bytes32",
              "name": "role",
              "type": "bytes32"
            },
            {
              "internalType": "address",
              "name": "account",
              "type": "address"
            }
          ],
          "name": "hasRole",
          "outputs": [
            {
              "internalType": "bool",
              "name": "",
              "type": "bool"
            }
          ],
          "stateMutability": "view",
          "type": "function"
        },
        {
          "inputs": [],
          "name": "pair",
          "outputs": [
            {
              "internalType": "contract IUniswapV2Pair",
              "name": "",
              "type": "address"
            }
          ],
          "stateMutability": "view",
          "type": "function"
        },
        {
          "inputs": [],
          "name": "period",
          "outputs": [
            {
              "internalType": "uint256",
              "name": "",
              "type": "uint256"
            }
          ],
          "stateMutability": "view",
          "type": "function"
        },
        {
          "inputs": [],
          "name": "price0Average",
          "outputs": [
            {
              "internalType": "uint224",
              "name": "_x",
              "type": "uint224"
            }
          ],
          "stateMutability": "view",
          "type": "function"
        },
        {
          "inputs": [],
          "name": "price0CumulativeLast",
          "outputs": [
            {
              "internalType": "uint256",
              "name": "",
              "type": "uint256"
            }
          ],
          "stateMutability": "view",
          "type": "function"
        },
        {
          "inputs": [],
          "name": "price1Average",
          "outputs": [
            {
              "internalType": "uint224",
              "name": "_x",
              "type": "uint224"
            }
          ],
          "stateMutability": "view",
          "type": "function"
        },
        {
          "inputs": [],
          "name": "price1CumulativeLast",
          "outputs": [
            {
              "internalType": "uint256",
              "name": "",
              "type": "uint256"
            }
          ],
          "stateMutability": "view",
          "type": "function"
        },
        {
          "inputs": [],
          "name": "read",
          "outputs": [
            {
              "internalType": "uint256",
              "name": "",
              "type": "uint256"
            }
          ],
          "stateMutability": "view",
          "type": "function"
        },
        {
          "inputs": [
            {
              "internalType": "bytes32",
              "name": "role",
              "type": "bytes32"
            },
            {
              "internalType": "address",
              "name": "account",
              "type": "address"
            }
          ],
          "name": "renounceRole",
          "outputs": [],
          "stateMutability": "nonpayable",
          "type": "function"
        },
        {
          "inputs": [
            {
              "internalType": "bytes32",
              "name": "role",
              "type": "bytes32"
            },
            {
              "internalType": "address",
              "name": "account",
              "type": "address"
            }
          ],
          "name": "revokeRole",
          "outputs": [],
          "stateMutability": "nonpayable",
          "type": "function"
        },
        {
          "inputs": [
            {
              "internalType": "uint256",
              "name": "_period",
              "type": "uint256"
            }
          ],
          "name": "setPeriod",
          "outputs": [],
          "stateMutability": "nonpayable",
          "type": "function"
        },
        {
          "inputs": [
            {
              "internalType": "bytes4",
              "name": "interfaceId",
              "type": "bytes4"
            }
          ],
          "name": "supportsInterface",
          "outputs": [
            {
              "internalType": "bool",
              "name": "",
              "type": "bool"
            }
          ],
          "stateMutability": "view",
          "type": "function"
        },
        {
          "inputs": [],
          "name": "token0",
          "outputs": [
            {
              "internalType": "address",
              "name": "",
              "type": "address"
            }
          ],
          "stateMutability": "view",
          "type": "function"
        },
        {
          "inputs": [],
          "name": "token1",
          "outputs": [
            {
              "internalType": "address",
              "name": "",
              "type": "address"
            }
          ],
          "stateMutability": "view",
          "type": "function"
        },
        {
          "inputs": [],
          "name": "update",
          "outputs": [],
          "stateMutability": "nonpayable",
          "type": "function"
        }
      ],
      "evm": {
        "bytecode": {
          "linkReferences": {},
          "object": "60e0604052600780546001600160a01b0319908116735f4ec3df9cbd43714fe2740f5e3616155c5b8419179091556008805490911673a34317db73e77d453b1b8d04550c44d10e981c8e1790553480156200005957600080fd5b5060405162001b0c38038062001b0c8339810160408190526200007c916200056d565b615460600181905560405163e6a4390560e01b815273888888435fde8e7d4c54cab67f206e4199454c606004820181905273c02aaa39b223fe8d0a0e5c4f27ead9083c756cc26024830181905273c0aee478e3658e2610c5f7a4a2e1777ce9e4f2ac939192909190849063e6a4390590604401602060405180830381865afa1580156200010d573d6000803e3d6000fd5b505050506040513d601f19601f820116820180604052508101906200013391906200056d565b6001600160a01b0316608081905260408051630dfe168160e01b81529051630dfe1681916004808201926020929091908290030181865afa1580156200017d573d6000803e3d6000fd5b505050506040513d601f19601f82011682018060405250810190620001a391906200056d565b6001600160a01b031660a0816001600160a01b0316815250506080516001600160a01b031663d21220a76040518163ffffffff1660e01b8152600401602060405180830381865afa158015620001fd573d6000803e3d6000fd5b505050506040513d601f19601f820116820180604052508101906200022391906200056d565b6001600160a01b031660c0816001600160a01b0316815250506080516001600160a01b0316635909c0d56040518163ffffffff1660e01b8152600401602060405180830381865afa1580156200027d573d6000803e3d6000fd5b505050506040513d601f19601f82011682018060405250810190620002a391906200059f565b6002819055506080516001600160a01b0316635a3d54936040518163ffffffff1660e01b8152600401602060405180830381865afa158015620002ea573d6000803e3d6000fd5b505050506040513d601f19601f820116820180604052508101906200031091906200059f565b6003819055506000806080516001600160a01b0316630902f1ac6040518163ffffffff1660e01b8152600401606060405180830381865afa1580156200035a573d6000803e3d6000fd5b505050506040513d601f19601f82011682018060405250810190620003809190620005d6565b6004805463ffffffff191663ffffffff9290921691909117905590925090506001600160701b03821615801590620003c157506000816001600160701b0316115b620003ff5760405162461bcd60e51b815260206004820152600a60248201526932b6b83a3c96b830b4b960b11b604482015260640160405180910390fd5b5050505050506200043560008051602062001aec83398151915260008051602062001acc8339815191526200047260201b60201c565b6200045060008051602062001acc83398151915282620004bd565b6200046b60008051602062001aec83398151915282620004bd565b506200062c565b600082815260208190526040808220600101805490849055905190918391839186917fbd79b86ffe0ab8e8776151514217cd7cacd52c909f66475c3af44e129f0b00ff9190a4505050565b620004c98282620004cd565b5050565b6000828152602081815260408083206001600160a01b038516845290915290205460ff16620004c9576000828152602081815260408083206001600160a01b03851684529091529020805460ff19166001179055620005293390565b6001600160a01b0316816001600160a01b0316837f2f8788117e7eff1d82e926ec794901d17c78024a50270940304540a733656f0d60405160405180910390a45050565b6000602082840312156200058057600080fd5b81516001600160a01b03811681146200059857600080fd5b9392505050565b600060208284031215620005b257600080fd5b5051919050565b80516001600160701b0381168114620005d157600080fd5b919050565b600080600060608486031215620005ec57600080fd5b620005f784620005b9565b92506200060760208501620005b9565b9150604084015163ffffffff811681146200062157600080fd5b809150509250925092565b60805160a05160c05161145b62000671600039600081816103200152610517015260008181610174015261049f0152600081816102d401526109d5015261145b6000f3fe608060405234801561001057600080fd5b50600436106101425760003560e01c80638c3e62b6116100b8578063a8aa1b311161007c578063a8aa1b31146102cf578063c5700a02146102f6578063d21220a71461031b578063d547741f14610342578063ef78d4fd14610355578063f7de6b961461035e57600080fd5b80638c3e62b61461027257806391d1485414610299578063a217fddf146102ac578063a2e62045146102b4578063a6bb4539146102bc57600080fd5b806336568abe1161010a57806336568abe146102075780633ddac9531461021a57806357de26a41461022d5780635909c0d5146102355780635a3d54931461023e5780635e6aaf2c1461024757600080fd5b806301ffc9a7146101475780630dfe16811461016f5780630f3a9f65146101ae578063248a9ca3146101c35780632f2ff15d146101f4575b600080fd5b61015a6101553660046110bb565b610385565b60405190151581526020015b60405180910390f35b6101967f000000000000000000000000000000000000000000000000000000000000000081565b6040516001600160a01b039091168152602001610166565b6101c16101bc3660046110e5565b6103bc565b005b6101e66101d13660046110e5565b60009081526020819052604090206001015490565b604051908152602001610166565b6101c161020236600461111a565b6103ed565b6101c161021536600461111a565b610418565b6101e6610228366004611146565b61049b565b6101e66105be565b6101e660025481565b6101e660035481565b60065461025a906001600160e01b031681565b6040516001600160e01b039091168152602001610166565b6101e67fd23050e0177e436bd49953527dc9d5b7e647b92c071e11f266450d6128caaae081565b61015a6102a736600461111a565b61075b565b6101e6600081565b6101c1610784565b60055461025a906001600160e01b031681565b6101967f000000000000000000000000000000000000000000000000000000000000000081565b6004546103069063ffffffff1681565b60405163ffffffff9091168152602001610166565b6101967f000000000000000000000000000000000000000000000000000000000000000081565b6101c161035036600461111a565b6107ba565b6101e660015481565b6101e67f1226f4c9a9515a530c0644fa05432abb37bd80337a029c3cbf40ec720bdaa5ad81565b60006001600160e01b03198216637965db0b60e01b14806103b657506301ffc9a760e01b6001600160e01b03198316145b92915050565b7f1226f4c9a9515a530c0644fa05432abb37bd80337a029c3cbf40ec720bdaa5ad6103e781336107e0565b50600155565b60008281526020819052604090206001015461040981336107e0565b6104138383610844565b505050565b6001600160a01b038116331461048d5760405162461bcd60e51b815260206004820152602f60248201527f416363657373436f6e74726f6c3a2063616e206f6e6c792072656e6f756e636560448201526e103937b632b9903337b91039b2b63360891b60648201526084015b60405180910390fd5b61049782826108c8565b5050565b60007f00000000000000000000000000000000000000000000000000000000000000006001600160a01b0316836001600160a01b031614156105155760408051602081019091526005546001600160e01b03168152610505906104fe908461092d565b5160701c90565b6001600160901b031690506103b6565b7f00000000000000000000000000000000000000000000000000000000000000006001600160a01b0316836001600160a01b031614156105765760408051602081019091526006546001600160e01b03168152610505906104fe908461092d565b60405162461bcd60e51b815260206004820152601a60248201527f554e4956324f5241434c453a20494e56414c49445f544f4b454e0000000000006044820152606401610484565b6000806105e773888888435fde8e7d4c54cab67f206e4199454c60670de0b6b3a764000061049b565b90506000600760009054906101000a90046001600160a01b03166001600160a01b031663feaf968c6040518163ffffffff1660e01b815260040160a060405180830381865afa15801561063e573d6000803e3d6000fd5b505050506040513d601f19601f82011682018060405250810190610662919061118a565b5050509150506000600860009054906101000a90046001600160a01b03166001600160a01b031663feaf968c6040518163ffffffff1660e01b815260040160a060405180830381865afa1580156106bd573d6000803e3d6000fd5b505050506040513d601f19601f820116820180604052508101906106e1919061118a565b5050509150506000826402540be4006106fa91906111f0565b9050600061070d836402540be4006111f0565b90506000670de0b6b3a764000061072484886111f0565b61072e9190611225565b905060008261074583670de0b6b3a76400006111f0565b61074f9190611225565b98975050505050505050565b6000918252602082815260408084206001600160a01b0393909316845291905290205460ff1690565b7f1226f4c9a9515a530c0644fa05432abb37bd80337a029c3cbf40ec720bdaa5ad6107af81336107e0565b6107b76109cb565b50565b6000828152602081905260409020600101546107d681336107e0565b61041383836108c8565b6107ea828261075b565b61049757610802816001600160a01b03166014610b2d565b61080d836020610b2d565b60405160200161081e929190611269565b60408051601f198184030181529082905262461bcd60e51b8252610484916004016112de565b61084e828261075b565b610497576000828152602081815260408083206001600160a01b03851684529091529020805460ff191660011790556108843390565b6001600160a01b0316816001600160a01b0316837f2f8788117e7eff1d82e926ec794901d17c78024a50270940304540a733656f0d60405160405180910390a45050565b6108d2828261075b565b15610497576000828152602081815260408083206001600160a01b0385168085529252808320805460ff1916905551339285917ff6391f5c32d9c69d2a47ea670b442974b53935d1edc7fd64eb21e047a839171b9190a45050565b604080516020810190915260008152600082158061096a575083516001600160e01b03168361095c81836111f0565b92506109689083611225565b145b6109b65760405162461bcd60e51b815260206004820152601960248201527f4669786564506f696e743a3a6d756c3a206f766572666c6f77000000000000006044820152606401610484565b60408051602081019091529081529392505050565b60008060006109f97f0000000000000000000000000000000000000000000000000000000000000000610cd0565b6004549295509093509150600090610a179063ffffffff1683611311565b90506001548163ffffffff161015610a715760405162461bcd60e51b815260206004820152601f60248201527f554e4956324f5241434c453a20504552494f445f4e4f545f454c4150534544006044820152606401610484565b60405180602001604052808263ffffffff16600254870381610a9557610a9561120f565b046001600160e01b039081169091529051600580546001600160e01b031916919092161790556040805160208101909152600354819063ffffffff841690860381610ae257610ae261120f565b046001600160e01b039081169091529051600680546001600160e01b03191691909216179055506002929092556003556004805463ffffffff191663ffffffff909216919091179055565b60606000610b3c8360026111f0565b610b47906002611336565b67ffffffffffffffff811115610b5f57610b5f61134e565b6040519080825280601f01601f191660200182016040528015610b89576020820181803683370190505b509050600360fc1b81600081518110610ba457610ba4611364565b60200101906001600160f81b031916908160001a905350600f60fb1b81600181518110610bd357610bd3611364565b60200101906001600160f81b031916908160001a9053506000610bf78460026111f0565b610c02906001611336565b90505b6001811115610c7a576f181899199a1a9b1b9c1cb0b131b232b360811b85600f1660108110610c3657610c36611364565b1a60f81b828281518110610c4c57610c4c611364565b60200101906001600160f81b031916908160001a90535060049490941c93610c738161137a565b9050610c05565b508315610cc95760405162461bcd60e51b815260206004820181905260248201527f537472696e67733a20686578206c656e67746820696e73756666696369656e746044820152606401610484565b9392505050565b6000806000610cdd610ec7565b9050836001600160a01b0316635909c0d56040518163ffffffff1660e01b8152600401602060405180830381865afa158015610d1d573d6000803e3d6000fd5b505050506040513d601f19601f82011682018060405250810190610d419190611391565b9250836001600160a01b0316635a3d54936040518163ffffffff1660e01b8152600401602060405180830381865afa158015610d81573d6000803e3d6000fd5b505050506040513d601f19601f82011682018060405250810190610da59190611391565b91506000806000866001600160a01b0316630902f1ac6040518163ffffffff1660e01b8152600401606060405180830381865afa158015610dea573d6000803e3d6000fd5b505050506040513d601f19601f82011682018060405250810190610e0e91906113c1565b9250925092508363ffffffff168163ffffffff1614610ebd576000610e338286611311565b90508063ffffffff16610e58846001600160701b0316866001600160701b0316610edd565b51610e6c91906001600160e01b03166111f0565b610e769088611336565b96508063ffffffff16610e9b856001600160701b0316856001600160701b0316610edd565b51610eaf91906001600160e01b03166111f0565b610eb99087611336565b9550505b5050509193909250565b6000610ed864010000000042611411565b905090565b60408051602081019091526000815260008211610f4b5760405162461bcd60e51b815260206004820152602660248201527f4669786564506f696e743a3a6672616374696f6e3a206469766973696f6e206260448201526579207a65726f60d01b6064820152608401610484565b82610f6557506040805160208101909152600081526103b6565b6001600160901b038311610ffc576000610f8383607086901b611225565b90506001600160e01b03811115610fdc5760405162461bcd60e51b815260206004820152601e60248201527f4669786564506f696e743a3a6672616374696f6e3a206f766572666c6f7700006044820152606401610484565b6040518060200160405280826001600160e01b03168152509150506103b6565b6000610f8384600160701b85600080806000198587098587029250828110838203039150508060001415611042576000841161103757600080fd5b508290049050610cc9565b80841161104e57600080fd5b6000848688096000868103871696879004966002600389028118808a02820302808a02820302808a02820302808a02820302808a02820302808a02909103029181900381900460010186841190950394909402919094039290920491909117919091029150509392505050565b6000602082840312156110cd57600080fd5b81356001600160e01b031981168114610cc957600080fd5b6000602082840312156110f757600080fd5b5035919050565b80356001600160a01b038116811461111557600080fd5b919050565b6000806040838503121561112d57600080fd5b8235915061113d602084016110fe565b90509250929050565b6000806040838503121561115957600080fd5b611162836110fe565b946020939093013593505050565b805169ffffffffffffffffffff8116811461111557600080fd5b600080600080600060a086880312156111a257600080fd5b6111ab86611170565b94506020860151935060408601519250606086015191506111ce60808701611170565b90509295509295909350565b634e487b7160e01b600052601160045260246000fd5b600081600019048311821515161561120a5761120a6111da565b500290565b634e487b7160e01b600052601260045260246000fd5b6000826112345761123461120f565b500490565b60005b8381101561125457818101518382015260200161123c565b83811115611263576000848401525b50505050565b7f416363657373436f6e74726f6c3a206163636f756e74200000000000000000008152600083516112a1816017850160208801611239565b7001034b99036b4b9b9b4b733903937b6329607d1b60179184019182015283516112d2816028840160208801611239565b01602801949350505050565b60208152600082518060208401526112fd816040850160208701611239565b601f01601f19169190910160400192915050565b600063ffffffff8381169083168181101561132e5761132e6111da565b039392505050565b60008219821115611349576113496111da565b500190565b634e487b7160e01b600052604160045260246000fd5b634e487b7160e01b600052603260045260246000fd5b600081611389576113896111da565b506000190190565b6000602082840312156113a357600080fd5b5051919050565b80516001600160701b038116811461111557600080fd5b6000806000606084860312156113d657600080fd5b6113df846113aa565b92506113ed602085016113aa565b9150604084015163ffffffff8116811461140657600080fd5b809150509250925092565b6000826114205761142061120f565b50069056fea264697066735822122023cd0651a4c57f1cc532ae5e1360fd5032a75c68d62131c4614b1bab07cc2fde64736f6c634300080a0033d23050e0177e436bd49953527dc9d5b7e647b92c071e11f266450d6128caaae01226f4c9a9515a530c0644fa05432abb37bd80337a029c3cbf40ec720bdaa5ad",
          "opcodes": "PUSH1 0xE0 PUSH1 0x40 MSTORE PUSH1 0x7 DUP1 SLOAD PUSH1 0x1 PUSH1 0x1 PUSH1 0xA0 SHL SUB NOT SWAP1 DUP2 AND PUSH20 0x5F4EC3DF9CBD43714FE2740F5E3616155C5B8419 OR SWAP1 SWAP2 SSTORE PUSH1 0x8 DUP1 SLOAD SWAP1 SWAP2 AND PUSH20 0xA34317DB73E77D453B1B8D04550C44D10E981C8E OR SWAP1 SSTORE CALLVALUE DUP1 ISZERO PUSH3 0x59 JUMPI PUSH1 0x0 DUP1 REVERT JUMPDEST POP PUSH1 0x40 MLOAD PUSH3 0x1B0C CODESIZE SUB DUP1 PUSH3 0x1B0C DUP4 CODECOPY DUP2 ADD PUSH1 0x40 DUP2 SWAP1 MSTORE PUSH3 0x7C SWAP2 PUSH3 0x56D JUMP JUMPDEST PUSH2 0x5460 PUSH1 0x1 DUP2 SWAP1 SSTORE PUSH1 0x40 MLOAD PUSH4 0xE6A43905 PUSH1 0xE0 SHL DUP2 MSTORE PUSH20 0x888888435FDE8E7D4C54CAB67F206E4199454C60 PUSH1 0x4 DUP3 ADD DUP2 SWAP1 MSTORE PUSH20 0xC02AAA39B223FE8D0A0E5C4F27EAD9083C756CC2 PUSH1 0x24 DUP4 ADD DUP2 SWAP1 MSTORE PUSH20 0xC0AEE478E3658E2610C5F7A4A2E1777CE9E4F2AC SWAP4 SWAP2 SWAP3 SWAP1 SWAP2 SWAP1 DUP5 SWAP1 PUSH4 0xE6A43905 SWAP1 PUSH1 0x44 ADD PUSH1 0x20 PUSH1 0x40 MLOAD DUP1 DUP4 SUB DUP2 DUP7 GAS STATICCALL ISZERO DUP1 ISZERO PUSH3 0x10D JUMPI RETURNDATASIZE PUSH1 0x0 DUP1 RETURNDATACOPY RETURNDATASIZE PUSH1 0x0 REVERT JUMPDEST POP POP POP POP PUSH1 0x40 MLOAD RETURNDATASIZE PUSH1 0x1F NOT PUSH1 0x1F DUP3 ADD AND DUP3 ADD DUP1 PUSH1 0x40 MSTORE POP DUP2 ADD SWAP1 PUSH3 0x133 SWAP2 SWAP1 PUSH3 0x56D JUMP JUMPDEST PUSH1 0x1 PUSH1 0x1 PUSH1 0xA0 SHL SUB AND PUSH1 0x80 DUP2 SWAP1 MSTORE PUSH1 0x40 DUP1 MLOAD PUSH4 0xDFE1681 PUSH1 0xE0 SHL DUP2 MSTORE SWAP1 MLOAD PUSH4 0xDFE1681 SWAP2 PUSH1 0x4 DUP1 DUP3 ADD SWAP3 PUSH1 0x20 SWAP3 SWAP1 SWAP2 SWAP1 DUP3 SWAP1 SUB ADD DUP2 DUP7 GAS STATICCALL ISZERO DUP1 ISZERO PUSH3 0x17D JUMPI RETURNDATASIZE PUSH1 0x0 DUP1 RETURNDATACOPY RETURNDATASIZE PUSH1 0x0 REVERT JUMPDEST POP POP POP POP PUSH1 0x40 MLOAD RETURNDATASIZE PUSH1 0x1F NOT PUSH1 0x1F DUP3 ADD AND DUP3 ADD DUP1 PUSH1 0x40 MSTORE POP DUP2 ADD SWAP1 PUSH3 0x1A3 SWAP2 SWAP1 PUSH3 0x56D JUMP JUMPDEST PUSH1 0x1 PUSH1 0x1 PUSH1 0xA0 SHL SUB AND PUSH1 0xA0 DUP2 PUSH1 0x1 PUSH1 0x1 PUSH1 0xA0 SHL SUB AND DUP2 MSTORE POP POP PUSH1 0x80 MLOAD PUSH1 0x1 PUSH1 0x1 PUSH1 0xA0 SHL SUB AND PUSH4 0xD21220A7 PUSH1 0x40 MLOAD DUP2 PUSH4 0xFFFFFFFF AND PUSH1 0xE0 SHL DUP2 MSTORE PUSH1 0x4 ADD PUSH1 0x20 PUSH1 0x40 MLOAD DUP1 DUP4 SUB DUP2 DUP7 GAS STATICCALL ISZERO DUP1 ISZERO PUSH3 0x1FD JUMPI RETURNDATASIZE PUSH1 0x0 DUP1 RETURNDATACOPY RETURNDATASIZE PUSH1 0x0 REVERT JUMPDEST POP POP POP POP PUSH1 0x40 MLOAD RETURNDATASIZE PUSH1 0x1F NOT PUSH1 0x1F DUP3 ADD AND DUP3 ADD DUP1 PUSH1 0x40 MSTORE POP DUP2 ADD SWAP1 PUSH3 0x223 SWAP2 SWAP1 PUSH3 0x56D JUMP JUMPDEST PUSH1 0x1 PUSH1 0x1 PUSH1 0xA0 SHL SUB AND PUSH1 0xC0 DUP2 PUSH1 0x1 PUSH1 0x1 PUSH1 0xA0 SHL SUB AND DUP2 MSTORE POP POP PUSH1 0x80 MLOAD PUSH1 0x1 PUSH1 0x1 PUSH1 0xA0 SHL SUB AND PUSH4 0x5909C0D5 PUSH1 0x40 MLOAD DUP2 PUSH4 0xFFFFFFFF AND PUSH1 0xE0 SHL DUP2 MSTORE PUSH1 0x4 ADD PUSH1 0x20 PUSH1 0x40 MLOAD DUP1 DUP4 SUB DUP2 DUP7 GAS STATICCALL ISZERO DUP1 ISZERO PUSH3 0x27D JUMPI RETURNDATASIZE PUSH1 0x0 DUP1 RETURNDATACOPY RETURNDATASIZE PUSH1 0x0 REVERT JUMPDEST POP POP POP POP PUSH1 0x40 MLOAD RETURNDATASIZE PUSH1 0x1F NOT PUSH1 0x1F DUP3 ADD AND DUP3 ADD DUP1 PUSH1 0x40 MSTORE POP DUP2 ADD SWAP1 PUSH3 0x2A3 SWAP2 SWAP1 PUSH3 0x59F JUMP JUMPDEST PUSH1 0x2 DUP2 SWAP1 SSTORE POP PUSH1 0x80 MLOAD PUSH1 0x1 PUSH1 0x1 PUSH1 0xA0 SHL SUB AND PUSH4 0x5A3D5493 PUSH1 0x40 MLOAD DUP2 PUSH4 0xFFFFFFFF AND PUSH1 0xE0 SHL DUP2 MSTORE PUSH1 0x4 ADD PUSH1 0x20 PUSH1 0x40 MLOAD DUP1 DUP4 SUB DUP2 DUP7 GAS STATICCALL ISZERO DUP1 ISZERO PUSH3 0x2EA JUMPI RETURNDATASIZE PUSH1 0x0 DUP1 RETURNDATACOPY RETURNDATASIZE PUSH1 0x0 REVERT JUMPDEST POP POP POP POP PUSH1 0x40 MLOAD RETURNDATASIZE PUSH1 0x1F NOT PUSH1 0x1F DUP3 ADD AND DUP3 ADD DUP1 PUSH1 0x40 MSTORE POP DUP2 ADD SWAP1 PUSH3 0x310 SWAP2 SWAP1 PUSH3 0x59F JUMP JUMPDEST PUSH1 0x3 DUP2 SWAP1 SSTORE POP PUSH1 0x0 DUP1 PUSH1 0x80 MLOAD PUSH1 0x1 PUSH1 0x1 PUSH1 0xA0 SHL SUB AND PUSH4 0x902F1AC PUSH1 0x40 MLOAD DUP2 PUSH4 0xFFFFFFFF AND PUSH1 0xE0 SHL DUP2 MSTORE PUSH1 0x4 ADD PUSH1 0x60 PUSH1 0x40 MLOAD DUP1 DUP4 SUB DUP2 DUP7 GAS STATICCALL ISZERO DUP1 ISZERO PUSH3 0x35A JUMPI RETURNDATASIZE PUSH1 0x0 DUP1 RETURNDATACOPY RETURNDATASIZE PUSH1 0x0 REVERT JUMPDEST POP POP POP POP PUSH1 0x40 MLOAD RETURNDATASIZE PUSH1 0x1F NOT PUSH1 0x1F DUP3 ADD AND DUP3 ADD DUP1 PUSH1 0x40 MSTORE POP DUP2 ADD SWAP1 PUSH3 0x380 SWAP2 SWAP1 PUSH3 0x5D6 JUMP JUMPDEST PUSH1 0x4 DUP1 SLOAD PUSH4 0xFFFFFFFF NOT AND PUSH4 0xFFFFFFFF SWAP3 SWAP1 SWAP3 AND SWAP2 SWAP1 SWAP2 OR SWAP1 SSTORE SWAP1 SWAP3 POP SWAP1 POP PUSH1 0x1 PUSH1 0x1 PUSH1 0x70 SHL SUB DUP3 AND ISZERO DUP1 ISZERO SWAP1 PUSH3 0x3C1 JUMPI POP PUSH1 0x0 DUP2 PUSH1 0x1 PUSH1 0x1 PUSH1 0x70 SHL SUB AND GT JUMPDEST PUSH3 0x3FF JUMPI PUSH1 0x40 MLOAD PUSH3 0x461BCD PUSH1 0xE5 SHL DUP2 MSTORE PUSH1 0x20 PUSH1 0x4 DUP3 ADD MSTORE PUSH1 0xA PUSH1 0x24 DUP3 ADD MSTORE PUSH10 0x32B6B83A3C96B830B4B9 PUSH1 0xB1 SHL PUSH1 0x44 DUP3 ADD MSTORE PUSH1 0x64 ADD PUSH1 0x40 MLOAD DUP1 SWAP2 SUB SWAP1 REVERT JUMPDEST POP POP POP POP POP POP PUSH3 0x435 PUSH1 0x0 DUP1 MLOAD PUSH1 0x20 PUSH3 0x1AEC DUP4 CODECOPY DUP2 MLOAD SWAP2 MSTORE PUSH1 0x0 DUP1 MLOAD PUSH1 0x20 PUSH3 0x1ACC DUP4 CODECOPY DUP2 MLOAD SWAP2 MSTORE PUSH3 0x472 PUSH1 0x20 SHL PUSH1 0x20 SHR JUMP JUMPDEST PUSH3 0x450 PUSH1 0x0 DUP1 MLOAD PUSH1 0x20 PUSH3 0x1ACC DUP4 CODECOPY DUP2 MLOAD SWAP2 MSTORE DUP3 PUSH3 0x4BD JUMP JUMPDEST PUSH3 0x46B PUSH1 0x0 DUP1 MLOAD PUSH1 0x20 PUSH3 0x1AEC DUP4 CODECOPY DUP2 MLOAD SWAP2 MSTORE DUP3 PUSH3 0x4BD JUMP JUMPDEST POP PUSH3 0x62C JUMP JUMPDEST PUSH1 0x0 DUP3 DUP2 MSTORE PUSH1 0x20 DUP2 SWAP1 MSTORE PUSH1 0x40 DUP1 DUP3 KECCAK256 PUSH1 0x1 ADD DUP1 SLOAD SWAP1 DUP5 SWAP1 SSTORE SWAP1 MLOAD SWAP1 SWAP2 DUP4 SWAP2 DUP4 SWAP2 DUP7 SWAP2 PUSH32 0xBD79B86FFE0AB8E8776151514217CD7CACD52C909F66475C3AF44E129F0B00FF SWAP2 SWAP1 LOG4 POP POP POP JUMP JUMPDEST PUSH3 0x4C9 DUP3 DUP3 PUSH3 0x4CD JUMP JUMPDEST POP POP JUMP JUMPDEST PUSH1 0x0 DUP3 DUP2 MSTORE PUSH1 0x20 DUP2 DUP2 MSTORE PUSH1 0x40 DUP1 DUP4 KECCAK256 PUSH1 0x1 PUSH1 0x1 PUSH1 0xA0 SHL SUB DUP6 AND DUP5 MSTORE SWAP1 SWAP2 MSTORE SWAP1 KECCAK256 SLOAD PUSH1 0xFF AND PUSH3 0x4C9 JUMPI PUSH1 0x0 DUP3 DUP2 MSTORE PUSH1 0x20 DUP2 DUP2 MSTORE PUSH1 0x40 DUP1 DUP4 KECCAK256 PUSH1 0x1 PUSH1 0x1 PUSH1 0xA0 SHL SUB DUP6 AND DUP5 MSTORE SWAP1 SWAP2 MSTORE SWAP1 KECCAK256 DUP1 SLOAD PUSH1 0xFF NOT AND PUSH1 0x1 OR SWAP1 SSTORE PUSH3 0x529 CALLER SWAP1 JUMP JUMPDEST PUSH1 0x1 PUSH1 0x1 PUSH1 0xA0 SHL SUB AND DUP2 PUSH1 0x1 PUSH1 0x1 PUSH1 0xA0 SHL SUB AND DUP4 PUSH32 0x2F8788117E7EFF1D82E926EC794901D17C78024A50270940304540A733656F0D PUSH1 0x40 MLOAD PUSH1 0x40 MLOAD DUP1 SWAP2 SUB SWAP1 LOG4 POP POP JUMP JUMPDEST PUSH1 0x0 PUSH1 0x20 DUP3 DUP5 SUB SLT ISZERO PUSH3 0x580 JUMPI PUSH1 0x0 DUP1 REVERT JUMPDEST DUP2 MLOAD PUSH1 0x1 PUSH1 0x1 PUSH1 0xA0 SHL SUB DUP2 AND DUP2 EQ PUSH3 0x598 JUMPI PUSH1 0x0 DUP1 REVERT JUMPDEST SWAP4 SWAP3 POP POP POP JUMP JUMPDEST PUSH1 0x0 PUSH1 0x20 DUP3 DUP5 SUB SLT ISZERO PUSH3 0x5B2 JUMPI PUSH1 0x0 DUP1 REVERT JUMPDEST POP MLOAD SWAP2 SWAP1 POP JUMP JUMPDEST DUP1 MLOAD PUSH1 0x1 PUSH1 0x1 PUSH1 0x70 SHL SUB DUP2 AND DUP2 EQ PUSH3 0x5D1 JUMPI PUSH1 0x0 DUP1 REVERT JUMPDEST SWAP2 SWAP1 POP JUMP JUMPDEST PUSH1 0x0 DUP1 PUSH1 0x0 PUSH1 0x60 DUP5 DUP7 SUB SLT ISZERO PUSH3 0x5EC JUMPI PUSH1 0x0 DUP1 REVERT JUMPDEST PUSH3 0x5F7 DUP5 PUSH3 0x5B9 JUMP JUMPDEST SWAP3 POP PUSH3 0x607 PUSH1 0x20 DUP6 ADD PUSH3 0x5B9 JUMP JUMPDEST SWAP2 POP PUSH1 0x40 DUP5 ADD MLOAD PUSH4 0xFFFFFFFF DUP2 AND DUP2 EQ PUSH3 0x621 JUMPI PUSH1 0x0 DUP1 REVERT JUMPDEST DUP1 SWAP2 POP POP SWAP3 POP SWAP3 POP SWAP3 JUMP JUMPDEST PUSH1 0x80 MLOAD PUSH1 0xA0 MLOAD PUSH1 0xC0 MLOAD PUSH2 0x145B PUSH3 0x671 PUSH1 0x0 CODECOPY PUSH1 0x0 DUP2 DUP2 PUSH2 0x320 ADD MSTORE PUSH2 0x517 ADD MSTORE PUSH1 0x0 DUP2 DUP2 PUSH2 0x174 ADD MSTORE PUSH2 0x49F ADD MSTORE PUSH1 0x0 DUP2 DUP2 PUSH2 0x2D4 ADD MSTORE PUSH2 0x9D5 ADD MSTORE PUSH2 0x145B PUSH1 0x0 RETURN INVALID PUSH1 0x80 PUSH1 0x40 MSTORE CALLVALUE DUP1 ISZERO PUSH2 0x10 JUMPI PUSH1 0x0 DUP1 REVERT JUMPDEST POP PUSH1 0x4 CALLDATASIZE LT PUSH2 0x142 JUMPI PUSH1 0x0 CALLDATALOAD PUSH1 0xE0 SHR DUP1 PUSH4 0x8C3E62B6 GT PUSH2 0xB8 JUMPI DUP1 PUSH4 0xA8AA1B31 GT PUSH2 0x7C JUMPI DUP1 PUSH4 0xA8AA1B31 EQ PUSH2 0x2CF JUMPI DUP1 PUSH4 0xC5700A02 EQ PUSH2 0x2F6 JUMPI DUP1 PUSH4 0xD21220A7 EQ PUSH2 0x31B JUMPI DUP1 PUSH4 0xD547741F EQ PUSH2 0x342 JUMPI DUP1 PUSH4 0xEF78D4FD EQ PUSH2 0x355 JUMPI DUP1 PUSH4 0xF7DE6B96 EQ PUSH2 0x35E JUMPI PUSH1 0x0 DUP1 REVERT JUMPDEST DUP1 PUSH4 0x8C3E62B6 EQ PUSH2 0x272 JUMPI DUP1 PUSH4 0x91D14854 EQ PUSH2 0x299 JUMPI DUP1 PUSH4 0xA217FDDF EQ PUSH2 0x2AC JUMPI DUP1 PUSH4 0xA2E62045 EQ PUSH2 0x2B4 JUMPI DUP1 PUSH4 0xA6BB4539 EQ PUSH2 0x2BC JUMPI PUSH1 0x0 DUP1 REVERT JUMPDEST DUP1 PUSH4 0x36568ABE GT PUSH2 0x10A JUMPI DUP1 PUSH4 0x36568ABE EQ PUSH2 0x207 JUMPI DUP1 PUSH4 0x3DDAC953 EQ PUSH2 0x21A JUMPI DUP1 PUSH4 0x57DE26A4 EQ PUSH2 0x22D JUMPI DUP1 PUSH4 0x5909C0D5 EQ PUSH2 0x235 JUMPI DUP1 PUSH4 0x5A3D5493 EQ PUSH2 0x23E JUMPI DUP1 PUSH4 0x5E6AAF2C EQ PUSH2 0x247 JUMPI PUSH1 0x0 DUP1 REVERT JUMPDEST DUP1 PUSH4 0x1FFC9A7 EQ PUSH2 0x147 JUMPI DUP1 PUSH4 0xDFE1681 EQ PUSH2 0x16F JUMPI DUP1 PUSH4 0xF3A9F65 EQ PUSH2 0x1AE JUMPI DUP1 PUSH4 0x248A9CA3 EQ PUSH2 0x1C3 JUMPI DUP1 PUSH4 0x2F2FF15D EQ PUSH2 0x1F4 JUMPI JUMPDEST PUSH1 0x0 DUP1 REVERT JUMPDEST PUSH2 0x15A PUSH2 0x155 CALLDATASIZE PUSH1 0x4 PUSH2 0x10BB JUMP JUMPDEST PUSH2 0x385 JUMP JUMPDEST PUSH1 0x40 MLOAD SWAP1 ISZERO ISZERO DUP2 MSTORE PUSH1 0x20 ADD JUMPDEST PUSH1 0x40 MLOAD DUP1 SWAP2 SUB SWAP1 RETURN JUMPDEST PUSH2 0x196 PUSH32 0x0 DUP2 JUMP JUMPDEST PUSH1 0x40 MLOAD PUSH1 0x1 PUSH1 0x1 PUSH1 0xA0 SHL SUB SWAP1 SWAP2 AND DUP2 MSTORE PUSH1 0x20 ADD PUSH2 0x166 JUMP JUMPDEST PUSH2 0x1C1 PUSH2 0x1BC CALLDATASIZE PUSH1 0x4 PUSH2 0x10E5 JUMP JUMPDEST PUSH2 0x3BC JUMP JUMPDEST STOP JUMPDEST PUSH2 0x1E6 PUSH2 0x1D1 CALLDATASIZE PUSH1 0x4 PUSH2 0x10E5 JUMP JUMPDEST PUSH1 0x0 SWAP1 DUP2 MSTORE PUSH1 0x20 DUP2 SWAP1 MSTORE PUSH1 0x40 SWAP1 KECCAK256 PUSH1 0x1 ADD SLOAD SWAP1 JUMP JUMPDEST PUSH1 0x40 MLOAD SWAP1 DUP2 MSTORE PUSH1 0x20 ADD PUSH2 0x166 JUMP JUMPDEST PUSH2 0x1C1 PUSH2 0x202 CALLDATASIZE PUSH1 0x4 PUSH2 0x111A JUMP JUMPDEST PUSH2 0x3ED JUMP JUMPDEST PUSH2 0x1C1 PUSH2 0x215 CALLDATASIZE PUSH1 0x4 PUSH2 0x111A JUMP JUMPDEST PUSH2 0x418 JUMP JUMPDEST PUSH2 0x1E6 PUSH2 0x228 CALLDATASIZE PUSH1 0x4 PUSH2 0x1146 JUMP JUMPDEST PUSH2 0x49B JUMP JUMPDEST PUSH2 0x1E6 PUSH2 0x5BE JUMP JUMPDEST PUSH2 0x1E6 PUSH1 0x2 SLOAD DUP2 JUMP JUMPDEST PUSH2 0x1E6 PUSH1 0x3 SLOAD DUP2 JUMP JUMPDEST PUSH1 0x6 SLOAD PUSH2 0x25A SWAP1 PUSH1 0x1 PUSH1 0x1 PUSH1 0xE0 SHL SUB AND DUP2 JUMP JUMPDEST PUSH1 0x40 MLOAD PUSH1 0x1 PUSH1 0x1 PUSH1 0xE0 SHL SUB SWAP1 SWAP2 AND DUP2 MSTORE PUSH1 0x20 ADD PUSH2 0x166 JUMP JUMPDEST PUSH2 0x1E6 PUSH32 0xD23050E0177E436BD49953527DC9D5B7E647B92C071E11F266450D6128CAAAE0 DUP2 JUMP JUMPDEST PUSH2 0x15A PUSH2 0x2A7 CALLDATASIZE PUSH1 0x4 PUSH2 0x111A JUMP JUMPDEST PUSH2 0x75B JUMP JUMPDEST PUSH2 0x1E6 PUSH1 0x0 DUP2 JUMP JUMPDEST PUSH2 0x1C1 PUSH2 0x784 JUMP JUMPDEST PUSH1 0x5 SLOAD PUSH2 0x25A SWAP1 PUSH1 0x1 PUSH1 0x1 PUSH1 0xE0 SHL SUB AND DUP2 JUMP JUMPDEST PUSH2 0x196 PUSH32 0x0 DUP2 JUMP JUMPDEST PUSH1 0x4 SLOAD PUSH2 0x306 SWAP1 PUSH4 0xFFFFFFFF AND DUP2 JUMP JUMPDEST PUSH1 0x40 MLOAD PUSH4 0xFFFFFFFF SWAP1 SWAP2 AND DUP2 MSTORE PUSH1 0x20 ADD PUSH2 0x166 JUMP JUMPDEST PUSH2 0x196 PUSH32 0x0 DUP2 JUMP JUMPDEST PUSH2 0x1C1 PUSH2 0x350 CALLDATASIZE PUSH1 0x4 PUSH2 0x111A JUMP JUMPDEST PUSH2 0x7BA JUMP JUMPDEST PUSH2 0x1E6 PUSH1 0x1 SLOAD DUP2 JUMP JUMPDEST PUSH2 0x1E6 PUSH32 0x1226F4C9A9515A530C0644FA05432ABB37BD80337A029C3CBF40EC720BDAA5AD DUP2 JUMP JUMPDEST PUSH1 0x0 PUSH1 0x1 PUSH1 0x1 PUSH1 0xE0 SHL SUB NOT DUP3 AND PUSH4 0x7965DB0B PUSH1 0xE0 SHL EQ DUP1 PUSH2 0x3B6 JUMPI POP PUSH4 0x1FFC9A7 PUSH1 0xE0 SHL PUSH1 0x1 PUSH1 0x1 PUSH1 0xE0 SHL SUB NOT DUP4 AND EQ JUMPDEST SWAP3 SWAP2 POP POP JUMP JUMPDEST PUSH32 0x1226F4C9A9515A530C0644FA05432ABB37BD80337A029C3CBF40EC720BDAA5AD PUSH2 0x3E7 DUP2 CALLER PUSH2 0x7E0 JUMP JUMPDEST POP PUSH1 0x1 SSTORE JUMP JUMPDEST PUSH1 0x0 DUP3 DUP2 MSTORE PUSH1 0x20 DUP2 SWAP1 MSTORE PUSH1 0x40 SWAP1 KECCAK256 PUSH1 0x1 ADD SLOAD PUSH2 0x409 DUP2 CALLER PUSH2 0x7E0 JUMP JUMPDEST PUSH2 0x413 DUP4 DUP4 PUSH2 0x844 JUMP JUMPDEST POP POP POP JUMP JUMPDEST PUSH1 0x1 PUSH1 0x1 PUSH1 0xA0 SHL SUB DUP2 AND CALLER EQ PUSH2 0x48D JUMPI PUSH1 0x40 MLOAD PUSH3 0x461BCD PUSH1 0xE5 SHL DUP2 MSTORE PUSH1 0x20 PUSH1 0x4 DUP3 ADD MSTORE PUSH1 0x2F PUSH1 0x24 DUP3 ADD MSTORE PUSH32 0x416363657373436F6E74726F6C3A2063616E206F6E6C792072656E6F756E6365 PUSH1 0x44 DUP3 ADD MSTORE PUSH15 0x103937B632B9903337B91039B2B633 PUSH1 0x89 SHL PUSH1 0x64 DUP3 ADD MSTORE PUSH1 0x84 ADD JUMPDEST PUSH1 0x40 MLOAD DUP1 SWAP2 SUB SWAP1 REVERT JUMPDEST PUSH2 0x497 DUP3 DUP3 PUSH2 0x8C8 JUMP JUMPDEST POP POP JUMP JUMPDEST PUSH1 0x0 PUSH32 0x0 PUSH1 0x1 PUSH1 0x1 PUSH1 0xA0 SHL SUB AND DUP4 PUSH1 0x1 PUSH1 0x1 PUSH1 0xA0 SHL SUB AND EQ ISZERO PUSH2 0x515 JUMPI PUSH1 0x40 DUP1 MLOAD PUSH1 0x20 DUP2 ADD SWAP1 SWAP2 MSTORE PUSH1 0x5 SLOAD PUSH1 0x1 PUSH1 0x1 PUSH1 0xE0 SHL SUB AND DUP2 MSTORE PUSH2 0x505 SWAP1 PUSH2 0x4FE SWAP1 DUP5 PUSH2 0x92D JUMP JUMPDEST MLOAD PUSH1 0x70 SHR SWAP1 JUMP JUMPDEST PUSH1 0x1 PUSH1 0x1 PUSH1 0x90 SHL SUB AND SWAP1 POP PUSH2 0x3B6 JUMP JUMPDEST PUSH32 0x0 PUSH1 0x1 PUSH1 0x1 PUSH1 0xA0 SHL SUB AND DUP4 PUSH1 0x1 PUSH1 0x1 PUSH1 0xA0 SHL SUB AND EQ ISZERO PUSH2 0x576 JUMPI PUSH1 0x40 DUP1 MLOAD PUSH1 0x20 DUP2 ADD SWAP1 SWAP2 MSTORE PUSH1 0x6 SLOAD PUSH1 0x1 PUSH1 0x1 PUSH1 0xE0 SHL SUB AND DUP2 MSTORE PUSH2 0x505 SWAP1 PUSH2 0x4FE SWAP1 DUP5 PUSH2 0x92D JUMP JUMPDEST PUSH1 0x40 MLOAD PUSH3 0x461BCD PUSH1 0xE5 SHL DUP2 MSTORE PUSH1 0x20 PUSH1 0x4 DUP3 ADD MSTORE PUSH1 0x1A PUSH1 0x24 DUP3 ADD MSTORE PUSH32 0x554E4956324F5241434C453A20494E56414C49445F544F4B454E000000000000 PUSH1 0x44 DUP3 ADD MSTORE PUSH1 0x64 ADD PUSH2 0x484 JUMP JUMPDEST PUSH1 0x0 DUP1 PUSH2 0x5E7 PUSH20 0x888888435FDE8E7D4C54CAB67F206E4199454C60 PUSH8 0xDE0B6B3A7640000 PUSH2 0x49B JUMP JUMPDEST SWAP1 POP PUSH1 0x0 PUSH1 0x7 PUSH1 0x0 SWAP1 SLOAD SWAP1 PUSH2 0x100 EXP SWAP1 DIV PUSH1 0x1 PUSH1 0x1 PUSH1 0xA0 SHL SUB AND PUSH1 0x1 PUSH1 0x1 PUSH1 0xA0 SHL SUB AND PUSH4 0xFEAF968C PUSH1 0x40 MLOAD DUP2 PUSH4 0xFFFFFFFF AND PUSH1 0xE0 SHL DUP2 MSTORE PUSH1 0x4 ADD PUSH1 0xA0 PUSH1 0x40 MLOAD DUP1 DUP4 SUB DUP2 DUP7 GAS STATICCALL ISZERO DUP1 ISZERO PUSH2 0x63E JUMPI RETURNDATASIZE PUSH1 0x0 DUP1 RETURNDATACOPY RETURNDATASIZE PUSH1 0x0 REVERT JUMPDEST POP POP POP POP PUSH1 0x40 MLOAD RETURNDATASIZE PUSH1 0x1F NOT PUSH1 0x1F DUP3 ADD AND DUP3 ADD DUP1 PUSH1 0x40 MSTORE POP DUP2 ADD SWAP1 PUSH2 0x662 SWAP2 SWAP1 PUSH2 0x118A JUMP JUMPDEST POP POP POP SWAP2 POP POP PUSH1 0x0 PUSH1 0x8 PUSH1 0x0 SWAP1 SLOAD SWAP1 PUSH2 0x100 EXP SWAP1 DIV PUSH1 0x1 PUSH1 0x1 PUSH1 0xA0 SHL SUB AND PUSH1 0x1 PUSH1 0x1 PUSH1 0xA0 SHL SUB AND PUSH4 0xFEAF968C PUSH1 0x40 MLOAD DUP2 PUSH4 0xFFFFFFFF AND PUSH1 0xE0 SHL DUP2 MSTORE PUSH1 0x4 ADD PUSH1 0xA0 PUSH1 0x40 MLOAD DUP1 DUP4 SUB DUP2 DUP7 GAS STATICCALL ISZERO DUP1 ISZERO PUSH2 0x6BD JUMPI RETURNDATASIZE PUSH1 0x0 DUP1 RETURNDATACOPY RETURNDATASIZE PUSH1 0x0 REVERT JUMPDEST POP POP POP POP PUSH1 0x40 MLOAD RETURNDATASIZE PUSH1 0x1F NOT PUSH1 0x1F DUP3 ADD AND DUP3 ADD DUP1 PUSH1 0x40 MSTORE POP DUP2 ADD SWAP1 PUSH2 0x6E1 SWAP2 SWAP1 PUSH2 0x118A JUMP JUMPDEST POP POP POP SWAP2 POP POP PUSH1 0x0 DUP3 PUSH5 0x2540BE400 PUSH2 0x6FA SWAP2 SWAP1 PUSH2 0x11F0 JUMP JUMPDEST SWAP1 POP PUSH1 0x0 PUSH2 0x70D DUP4 PUSH5 0x2540BE400 PUSH2 0x11F0 JUMP JUMPDEST SWAP1 POP PUSH1 0x0 PUSH8 0xDE0B6B3A7640000 PUSH2 0x724 DUP5 DUP9 PUSH2 0x11F0 JUMP JUMPDEST PUSH2 0x72E SWAP2 SWAP1 PUSH2 0x1225 JUMP JUMPDEST SWAP1 POP PUSH1 0x0 DUP3 PUSH2 0x745 DUP4 PUSH8 0xDE0B6B3A7640000 PUSH2 0x11F0 JUMP JUMPDEST PUSH2 0x74F SWAP2 SWAP1 PUSH2 0x1225 JUMP JUMPDEST SWAP9 SWAP8 POP POP POP POP POP POP POP POP JUMP JUMPDEST PUSH1 0x0 SWAP2 DUP3 MSTORE PUSH1 0x20 DUP3 DUP2 MSTORE PUSH1 0x40 DUP1 DUP5 KECCAK256 PUSH1 0x1 PUSH1 0x1 PUSH1 0xA0 SHL SUB SWAP4 SWAP1 SWAP4 AND DUP5 MSTORE SWAP2 SWAP1 MSTORE SWAP1 KECCAK256 SLOAD PUSH1 0xFF AND SWAP1 JUMP JUMPDEST PUSH32 0x1226F4C9A9515A530C0644FA05432ABB37BD80337A029C3CBF40EC720BDAA5AD PUSH2 0x7AF DUP2 CALLER PUSH2 0x7E0 JUMP JUMPDEST PUSH2 0x7B7 PUSH2 0x9CB JUMP JUMPDEST POP JUMP JUMPDEST PUSH1 0x0 DUP3 DUP2 MSTORE PUSH1 0x20 DUP2 SWAP1 MSTORE PUSH1 0x40 SWAP1 KECCAK256 PUSH1 0x1 ADD SLOAD PUSH2 0x7D6 DUP2 CALLER PUSH2 0x7E0 JUMP JUMPDEST PUSH2 0x413 DUP4 DUP4 PUSH2 0x8C8 JUMP JUMPDEST PUSH2 0x7EA DUP3 DUP3 PUSH2 0x75B JUMP JUMPDEST PUSH2 0x497 JUMPI PUSH2 0x802 DUP2 PUSH1 0x1 PUSH1 0x1 PUSH1 0xA0 SHL SUB AND PUSH1 0x14 PUSH2 0xB2D JUMP JUMPDEST PUSH2 0x80D DUP4 PUSH1 0x20 PUSH2 0xB2D JUMP JUMPDEST PUSH1 0x40 MLOAD PUSH1 0x20 ADD PUSH2 0x81E SWAP3 SWAP2 SWAP1 PUSH2 0x1269 JUMP JUMPDEST PUSH1 0x40 DUP1 MLOAD PUSH1 0x1F NOT DUP2 DUP5 SUB ADD DUP2 MSTORE SWAP1 DUP3 SWAP1 MSTORE PUSH3 0x461BCD PUSH1 0xE5 SHL DUP3 MSTORE PUSH2 0x484 SWAP2 PUSH1 0x4 ADD PUSH2 0x12DE JUMP JUMPDEST PUSH2 0x84E DUP3 DUP3 PUSH2 0x75B JUMP JUMPDEST PUSH2 0x497 JUMPI PUSH1 0x0 DUP3 DUP2 MSTORE PUSH1 0x20 DUP2 DUP2 MSTORE PUSH1 0x40 DUP1 DUP4 KECCAK256 PUSH1 0x1 PUSH1 0x1 PUSH1 0xA0 SHL SUB DUP6 AND DUP5 MSTORE SWAP1 SWAP2 MSTORE SWAP1 KECCAK256 DUP1 SLOAD PUSH1 0xFF NOT AND PUSH1 0x1 OR SWAP1 SSTORE PUSH2 0x884 CALLER SWAP1 JUMP JUMPDEST PUSH1 0x1 PUSH1 0x1 PUSH1 0xA0 SHL SUB AND DUP2 PUSH1 0x1 PUSH1 0x1 PUSH1 0xA0 SHL SUB AND DUP4 PUSH32 0x2F8788117E7EFF1D82E926EC794901D17C78024A50270940304540A733656F0D PUSH1 0x40 MLOAD PUSH1 0x40 MLOAD DUP1 SWAP2 SUB SWAP1 LOG4 POP POP JUMP JUMPDEST PUSH2 0x8D2 DUP3 DUP3 PUSH2 0x75B JUMP JUMPDEST ISZERO PUSH2 0x497 JUMPI PUSH1 0x0 DUP3 DUP2 MSTORE PUSH1 0x20 DUP2 DUP2 MSTORE PUSH1 0x40 DUP1 DUP4 KECCAK256 PUSH1 0x1 PUSH1 0x1 PUSH1 0xA0 SHL SUB DUP6 AND DUP1 DUP6 MSTORE SWAP3 MSTORE DUP1 DUP4 KECCAK256 DUP1 SLOAD PUSH1 0xFF NOT AND SWAP1 SSTORE MLOAD CALLER SWAP3 DUP6 SWAP2 PUSH32 0xF6391F5C32D9C69D2A47EA670B442974B53935D1EDC7FD64EB21E047A839171B SWAP2 SWAP1 LOG4 POP POP JUMP JUMPDEST PUSH1 0x40 DUP1 MLOAD PUSH1 0x20 DUP2 ADD SWAP1 SWAP2 MSTORE PUSH1 0x0 DUP2 MSTORE PUSH1 0x0 DUP3 ISZERO DUP1 PUSH2 0x96A JUMPI POP DUP4 MLOAD PUSH1 0x1 PUSH1 0x1 PUSH1 0xE0 SHL SUB AND DUP4 PUSH2 0x95C DUP2 DUP4 PUSH2 0x11F0 JUMP JUMPDEST SWAP3 POP PUSH2 0x968 SWAP1 DUP4 PUSH2 0x1225 JUMP JUMPDEST EQ JUMPDEST PUSH2 0x9B6 JUMPI PUSH1 0x40 MLOAD PUSH3 0x461BCD PUSH1 0xE5 SHL DUP2 MSTORE PUSH1 0x20 PUSH1 0x4 DUP3 ADD MSTORE PUSH1 0x19 PUSH1 0x24 DUP3 ADD MSTORE PUSH32 0x4669786564506F696E743A3A6D756C3A206F766572666C6F7700000000000000 PUSH1 0x44 DUP3 ADD MSTORE PUSH1 0x64 ADD PUSH2 0x484 JUMP JUMPDEST PUSH1 0x40 DUP1 MLOAD PUSH1 0x20 DUP2 ADD SWAP1 SWAP2 MSTORE SWAP1 DUP2 MSTORE SWAP4 SWAP3 POP POP POP JUMP JUMPDEST PUSH1 0x0 DUP1 PUSH1 0x0 PUSH2 0x9F9 PUSH32 0x0 PUSH2 0xCD0 JUMP JUMPDEST PUSH1 0x4 SLOAD SWAP3 SWAP6 POP SWAP1 SWAP4 POP SWAP2 POP PUSH1 0x0 SWAP1 PUSH2 0xA17 SWAP1 PUSH4 0xFFFFFFFF AND DUP4 PUSH2 0x1311 JUMP JUMPDEST SWAP1 POP PUSH1 0x1 SLOAD DUP2 PUSH4 0xFFFFFFFF AND LT ISZERO PUSH2 0xA71 JUMPI PUSH1 0x40 MLOAD PUSH3 0x461BCD PUSH1 0xE5 SHL DUP2 MSTORE PUSH1 0x20 PUSH1 0x4 DUP3 ADD MSTORE PUSH1 0x1F PUSH1 0x24 DUP3 ADD MSTORE PUSH32 0x554E4956324F5241434C453A20504552494F445F4E4F545F454C415053454400 PUSH1 0x44 DUP3 ADD MSTORE PUSH1 0x64 ADD PUSH2 0x484 JUMP JUMPDEST PUSH1 0x40 MLOAD DUP1 PUSH1 0x20 ADD PUSH1 0x40 MSTORE DUP1 DUP3 PUSH4 0xFFFFFFFF AND PUSH1 0x2 SLOAD DUP8 SUB DUP2 PUSH2 0xA95 JUMPI PUSH2 0xA95 PUSH2 0x120F JUMP JUMPDEST DIV PUSH1 0x1 PUSH1 0x1 PUSH1 0xE0 SHL SUB SWAP1 DUP2 AND SWAP1 SWAP2 MSTORE SWAP1 MLOAD PUSH1 0x5 DUP1 SLOAD PUSH1 0x1 PUSH1 0x1 PUSH1 0xE0 SHL SUB NOT AND SWAP2 SWAP1 SWAP3 AND OR SWAP1 SSTORE PUSH1 0x40 DUP1 MLOAD PUSH1 0x20 DUP2 ADD SWAP1 SWAP2 MSTORE PUSH1 0x3 SLOAD DUP2 SWAP1 PUSH4 0xFFFFFFFF DUP5 AND SWAP1 DUP7 SUB DUP2 PUSH2 0xAE2 JUMPI PUSH2 0xAE2 PUSH2 0x120F JUMP JUMPDEST DIV PUSH1 0x1 PUSH1 0x1 PUSH1 0xE0 SHL SUB SWAP1 DUP2 AND SWAP1 SWAP2 MSTORE SWAP1 MLOAD PUSH1 0x6 DUP1 SLOAD PUSH1 0x1 PUSH1 0x1 PUSH1 0xE0 SHL SUB NOT AND SWAP2 SWAP1 SWAP3 AND OR SWAP1 SSTORE POP PUSH1 0x2 SWAP3 SWAP1 SWAP3 SSTORE PUSH1 0x3 SSTORE PUSH1 0x4 DUP1 SLOAD PUSH4 0xFFFFFFFF NOT AND PUSH4 0xFFFFFFFF SWAP1 SWAP3 AND SWAP2 SWAP1 SWAP2 OR SWAP1 SSTORE JUMP JUMPDEST PUSH1 0x60 PUSH1 0x0 PUSH2 0xB3C DUP4 PUSH1 0x2 PUSH2 0x11F0 JUMP JUMPDEST PUSH2 0xB47 SWAP1 PUSH1 0x2 PUSH2 0x1336 JUMP JUMPDEST PUSH8 0xFFFFFFFFFFFFFFFF DUP2 GT ISZERO PUSH2 0xB5F JUMPI PUSH2 0xB5F PUSH2 0x134E JUMP JUMPDEST PUSH1 0x40 MLOAD SWAP1 DUP1 DUP3 MSTORE DUP1 PUSH1 0x1F ADD PUSH1 0x1F NOT AND PUSH1 0x20 ADD DUP3 ADD PUSH1 0x40 MSTORE DUP1 ISZERO PUSH2 0xB89 JUMPI PUSH1 0x20 DUP3 ADD DUP2 DUP1 CALLDATASIZE DUP4 CALLDATACOPY ADD SWAP1 POP JUMPDEST POP SWAP1 POP PUSH1 0x3 PUSH1 0xFC SHL DUP2 PUSH1 0x0 DUP2 MLOAD DUP2 LT PUSH2 0xBA4 JUMPI PUSH2 0xBA4 PUSH2 0x1364 JUMP JUMPDEST PUSH1 0x20 ADD ADD SWAP1 PUSH1 0x1 PUSH1 0x1 PUSH1 0xF8 SHL SUB NOT AND SWAP1 DUP2 PUSH1 0x0 BYTE SWAP1 MSTORE8 POP PUSH1 0xF PUSH1 0xFB SHL DUP2 PUSH1 0x1 DUP2 MLOAD DUP2 LT PUSH2 0xBD3 JUMPI PUSH2 0xBD3 PUSH2 0x1364 JUMP JUMPDEST PUSH1 0x20 ADD ADD SWAP1 PUSH1 0x1 PUSH1 0x1 PUSH1 0xF8 SHL SUB NOT AND SWAP1 DUP2 PUSH1 0x0 BYTE SWAP1 MSTORE8 POP PUSH1 0x0 PUSH2 0xBF7 DUP5 PUSH1 0x2 PUSH2 0x11F0 JUMP JUMPDEST PUSH2 0xC02 SWAP1 PUSH1 0x1 PUSH2 0x1336 JUMP JUMPDEST SWAP1 POP JUMPDEST PUSH1 0x1 DUP2 GT ISZERO PUSH2 0xC7A JUMPI PUSH16 0x181899199A1A9B1B9C1CB0B131B232B3 PUSH1 0x81 SHL DUP6 PUSH1 0xF AND PUSH1 0x10 DUP2 LT PUSH2 0xC36 JUMPI PUSH2 0xC36 PUSH2 0x1364 JUMP JUMPDEST BYTE PUSH1 0xF8 SHL DUP3 DUP3 DUP2 MLOAD DUP2 LT PUSH2 0xC4C JUMPI PUSH2 0xC4C PUSH2 0x1364 JUMP JUMPDEST PUSH1 0x20 ADD ADD SWAP1 PUSH1 0x1 PUSH1 0x1 PUSH1 0xF8 SHL SUB NOT AND SWAP1 DUP2 PUSH1 0x0 BYTE SWAP1 MSTORE8 POP PUSH1 0x4 SWAP5 SWAP1 SWAP5 SHR SWAP4 PUSH2 0xC73 DUP2 PUSH2 0x137A JUMP JUMPDEST SWAP1 POP PUSH2 0xC05 JUMP JUMPDEST POP DUP4 ISZERO PUSH2 0xCC9 JUMPI PUSH1 0x40 MLOAD PUSH3 0x461BCD PUSH1 0xE5 SHL DUP2 MSTORE PUSH1 0x20 PUSH1 0x4 DUP3 ADD DUP2 SWAP1 MSTORE PUSH1 0x24 DUP3 ADD MSTORE PUSH32 0x537472696E67733A20686578206C656E67746820696E73756666696369656E74 PUSH1 0x44 DUP3 ADD MSTORE PUSH1 0x64 ADD PUSH2 0x484 JUMP JUMPDEST SWAP4 SWAP3 POP POP POP JUMP JUMPDEST PUSH1 0x0 DUP1 PUSH1 0x0 PUSH2 0xCDD PUSH2 0xEC7 JUMP JUMPDEST SWAP1 POP DUP4 PUSH1 0x1 PUSH1 0x1 PUSH1 0xA0 SHL SUB AND PUSH4 0x5909C0D5 PUSH1 0x40 MLOAD DUP2 PUSH4 0xFFFFFFFF AND PUSH1 0xE0 SHL DUP2 MSTORE PUSH1 0x4 ADD PUSH1 0x20 PUSH1 0x40 MLOAD DUP1 DUP4 SUB DUP2 DUP7 GAS STATICCALL ISZERO DUP1 ISZERO PUSH2 0xD1D JUMPI RETURNDATASIZE PUSH1 0x0 DUP1 RETURNDATACOPY RETURNDATASIZE PUSH1 0x0 REVERT JUMPDEST POP POP POP POP PUSH1 0x40 MLOAD RETURNDATASIZE PUSH1 0x1F NOT PUSH1 0x1F DUP3 ADD AND DUP3 ADD DUP1 PUSH1 0x40 MSTORE POP DUP2 ADD SWAP1 PUSH2 0xD41 SWAP2 SWAP1 PUSH2 0x1391 JUMP JUMPDEST SWAP3 POP DUP4 PUSH1 0x1 PUSH1 0x1 PUSH1 0xA0 SHL SUB AND PUSH4 0x5A3D5493 PUSH1 0x40 MLOAD DUP2 PUSH4 0xFFFFFFFF AND PUSH1 0xE0 SHL DUP2 MSTORE PUSH1 0x4 ADD PUSH1 0x20 PUSH1 0x40 MLOAD DUP1 DUP4 SUB DUP2 DUP7 GAS STATICCALL ISZERO DUP1 ISZERO PUSH2 0xD81 JUMPI RETURNDATASIZE PUSH1 0x0 DUP1 RETURNDATACOPY RETURNDATASIZE PUSH1 0x0 REVERT JUMPDEST POP POP POP POP PUSH1 0x40 MLOAD RETURNDATASIZE PUSH1 0x1F NOT PUSH1 0x1F DUP3 ADD AND DUP3 ADD DUP1 PUSH1 0x40 MSTORE POP DUP2 ADD SWAP1 PUSH2 0xDA5 SWAP2 SWAP1 PUSH2 0x1391 JUMP JUMPDEST SWAP2 POP PUSH1 0x0 DUP1 PUSH1 0x0 DUP7 PUSH1 0x1 PUSH1 0x1 PUSH1 0xA0 SHL SUB AND PUSH4 0x902F1AC PUSH1 0x40 MLOAD DUP2 PUSH4 0xFFFFFFFF AND PUSH1 0xE0 SHL DUP2 MSTORE PUSH1 0x4 ADD PUSH1 0x60 PUSH1 0x40 MLOAD DUP1 DUP4 SUB DUP2 DUP7 GAS STATICCALL ISZERO DUP1 ISZERO PUSH2 0xDEA JUMPI RETURNDATASIZE PUSH1 0x0 DUP1 RETURNDATACOPY RETURNDATASIZE PUSH1 0x0 REVERT JUMPDEST POP POP POP POP PUSH1 0x40 MLOAD RETURNDATASIZE PUSH1 0x1F NOT PUSH1 0x1F DUP3 ADD AND DUP3 ADD DUP1 PUSH1 0x40 MSTORE POP DUP2 ADD SWAP1 PUSH2 0xE0E SWAP2 SWAP1 PUSH2 0x13C1 JUMP JUMPDEST SWAP3 POP SWAP3 POP SWAP3 POP DUP4 PUSH4 0xFFFFFFFF AND DUP2 PUSH4 0xFFFFFFFF AND EQ PUSH2 0xEBD JUMPI PUSH1 0x0 PUSH2 0xE33 DUP3 DUP7 PUSH2 0x1311 JUMP JUMPDEST SWAP1 POP DUP1 PUSH4 0xFFFFFFFF AND PUSH2 0xE58 DUP5 PUSH1 0x1 PUSH1 0x1 PUSH1 0x70 SHL SUB AND DUP7 PUSH1 0x1 PUSH1 0x1 PUSH1 0x70 SHL SUB AND PUSH2 0xEDD JUMP JUMPDEST MLOAD PUSH2 0xE6C SWAP2 SWAP1 PUSH1 0x1 PUSH1 0x1 PUSH1 0xE0 SHL SUB AND PUSH2 0x11F0 JUMP JUMPDEST PUSH2 0xE76 SWAP1 DUP9 PUSH2 0x1336 JUMP JUMPDEST SWAP7 POP DUP1 PUSH4 0xFFFFFFFF AND PUSH2 0xE9B DUP6 PUSH1 0x1 PUSH1 0x1 PUSH1 0x70 SHL SUB AND DUP6 PUSH1 0x1 PUSH1 0x1 PUSH1 0x70 SHL SUB AND PUSH2 0xEDD JUMP JUMPDEST MLOAD PUSH2 0xEAF SWAP2 SWAP1 PUSH1 0x1 PUSH1 0x1 PUSH1 0xE0 SHL SUB AND PUSH2 0x11F0 JUMP JUMPDEST PUSH2 0xEB9 SWAP1 DUP8 PUSH2 0x1336 JUMP JUMPDEST SWAP6 POP POP JUMPDEST POP POP POP SWAP2 SWAP4 SWAP1 SWAP3 POP JUMP JUMPDEST PUSH1 0x0 PUSH2 0xED8 PUSH5 0x100000000 TIMESTAMP PUSH2 0x1411 JUMP JUMPDEST SWAP1 POP SWAP1 JUMP JUMPDEST PUSH1 0x40 DUP1 MLOAD PUSH1 0x20 DUP2 ADD SWAP1 SWAP2 MSTORE PUSH1 0x0 DUP2 MSTORE PUSH1 0x0 DUP3 GT PUSH2 0xF4B JUMPI PUSH1 0x40 MLOAD PUSH3 0x461BCD PUSH1 0xE5 SHL DUP2 MSTORE PUSH1 0x20 PUSH1 0x4 DUP3 ADD MSTORE PUSH1 0x26 PUSH1 0x24 DUP3 ADD MSTORE PUSH32 0x4669786564506F696E743A3A6672616374696F6E3A206469766973696F6E2062 PUSH1 0x44 DUP3 ADD MSTORE PUSH6 0x79207A65726F PUSH1 0xD0 SHL PUSH1 0x64 DUP3 ADD MSTORE PUSH1 0x84 ADD PUSH2 0x484 JUMP JUMPDEST DUP3 PUSH2 0xF65 JUMPI POP PUSH1 0x40 DUP1 MLOAD PUSH1 0x20 DUP2 ADD SWAP1 SWAP2 MSTORE PUSH1 0x0 DUP2 MSTORE PUSH2 0x3B6 JUMP JUMPDEST PUSH1 0x1 PUSH1 0x1 PUSH1 0x90 SHL SUB DUP4 GT PUSH2 0xFFC JUMPI PUSH1 0x0 PUSH2 0xF83 DUP4 PUSH1 0x70 DUP7 SWAP1 SHL PUSH2 0x1225 JUMP JUMPDEST SWAP1 POP PUSH1 0x1 PUSH1 0x1 PUSH1 0xE0 SHL SUB DUP2 GT ISZERO PUSH2 0xFDC JUMPI PUSH1 0x40 MLOAD PUSH3 0x461BCD PUSH1 0xE5 SHL DUP2 MSTORE PUSH1 0x20 PUSH1 0x4 DUP3 ADD MSTORE PUSH1 0x1E PUSH1 0x24 DUP3 ADD MSTORE PUSH32 0x4669786564506F696E743A3A6672616374696F6E3A206F766572666C6F770000 PUSH1 0x44 DUP3 ADD MSTORE PUSH1 0x64 ADD PUSH2 0x484 JUMP JUMPDEST PUSH1 0x40 MLOAD DUP1 PUSH1 0x20 ADD PUSH1 0x40 MSTORE DUP1 DUP3 PUSH1 0x1 PUSH1 0x1 PUSH1 0xE0 SHL SUB AND DUP2 MSTORE POP SWAP2 POP POP PUSH2 0x3B6 JUMP JUMPDEST PUSH1 0x0 PUSH2 0xF83 DUP5 PUSH1 0x1 PUSH1 0x70 SHL DUP6 PUSH1 0x0 DUP1 DUP1 PUSH1 0x0 NOT DUP6 DUP8 MULMOD DUP6 DUP8 MUL SWAP3 POP DUP3 DUP2 LT DUP4 DUP3 SUB SUB SWAP2 POP POP DUP1 PUSH1 0x0 EQ ISZERO PUSH2 0x1042 JUMPI PUSH1 0x0 DUP5 GT PUSH2 0x1037 JUMPI PUSH1 0x0 DUP1 REVERT JUMPDEST POP DUP3 SWAP1 DIV SWAP1 POP PUSH2 0xCC9 JUMP JUMPDEST DUP1 DUP5 GT PUSH2 0x104E JUMPI PUSH1 0x0 DUP1 REVERT JUMPDEST PUSH1 0x0 DUP5 DUP7 DUP9 MULMOD PUSH1 0x0 DUP7 DUP2 SUB DUP8 AND SWAP7 DUP8 SWAP1 DIV SWAP7 PUSH1 0x2 PUSH1 0x3 DUP10 MUL DUP2 XOR DUP1 DUP11 MUL DUP3 SUB MUL DUP1 DUP11 MUL DUP3 SUB MUL DUP1 DUP11 MUL DUP3 SUB MUL DUP1 DUP11 MUL DUP3 SUB MUL DUP1 DUP11 MUL DUP3 SUB MUL DUP1 DUP11 MUL SWAP1 SWAP2 SUB MUL SWAP2 DUP2 SWAP1 SUB DUP2 SWAP1 DIV PUSH1 0x1 ADD DUP7 DUP5 GT SWAP1 SWAP6 SUB SWAP5 SWAP1 SWAP5 MUL SWAP2 SWAP1 SWAP5 SUB SWAP3 SWAP1 SWAP3 DIV SWAP2 SWAP1 SWAP2 OR SWAP2 SWAP1 SWAP2 MUL SWAP2 POP POP SWAP4 SWAP3 POP POP POP JUMP JUMPDEST PUSH1 0x0 PUSH1 0x20 DUP3 DUP5 SUB SLT ISZERO PUSH2 0x10CD JUMPI PUSH1 0x0 DUP1 REVERT JUMPDEST DUP2 CALLDATALOAD PUSH1 0x1 PUSH1 0x1 PUSH1 0xE0 SHL SUB NOT DUP2 AND DUP2 EQ PUSH2 0xCC9 JUMPI PUSH1 0x0 DUP1 REVERT JUMPDEST PUSH1 0x0 PUSH1 0x20 DUP3 DUP5 SUB SLT ISZERO PUSH2 0x10F7 JUMPI PUSH1 0x0 DUP1 REVERT JUMPDEST POP CALLDATALOAD SWAP2 SWAP1 POP JUMP JUMPDEST DUP1 CALLDATALOAD PUSH1 0x1 PUSH1 0x1 PUSH1 0xA0 SHL SUB DUP2 AND DUP2 EQ PUSH2 0x1115 JUMPI PUSH1 0x0 DUP1 REVERT JUMPDEST SWAP2 SWAP1 POP JUMP JUMPDEST PUSH1 0x0 DUP1 PUSH1 0x40 DUP4 DUP6 SUB SLT ISZERO PUSH2 0x112D JUMPI PUSH1 0x0 DUP1 REVERT JUMPDEST DUP3 CALLDATALOAD SWAP2 POP PUSH2 0x113D PUSH1 0x20 DUP5 ADD PUSH2 0x10FE JUMP JUMPDEST SWAP1 POP SWAP3 POP SWAP3 SWAP1 POP JUMP JUMPDEST PUSH1 0x0 DUP1 PUSH1 0x40 DUP4 DUP6 SUB SLT ISZERO PUSH2 0x1159 JUMPI PUSH1 0x0 DUP1 REVERT JUMPDEST PUSH2 0x1162 DUP4 PUSH2 0x10FE JUMP JUMPDEST SWAP5 PUSH1 0x20 SWAP4 SWAP1 SWAP4 ADD CALLDATALOAD SWAP4 POP POP POP JUMP JUMPDEST DUP1 MLOAD PUSH10 0xFFFFFFFFFFFFFFFFFFFF DUP2 AND DUP2 EQ PUSH2 0x1115 JUMPI PUSH1 0x0 DUP1 REVERT JUMPDEST PUSH1 0x0 DUP1 PUSH1 0x0 DUP1 PUSH1 0x0 PUSH1 0xA0 DUP7 DUP9 SUB SLT ISZERO PUSH2 0x11A2 JUMPI PUSH1 0x0 DUP1 REVERT JUMPDEST PUSH2 0x11AB DUP7 PUSH2 0x1170 JUMP JUMPDEST SWAP5 POP PUSH1 0x20 DUP7 ADD MLOAD SWAP4 POP PUSH1 0x40 DUP7 ADD MLOAD SWAP3 POP PUSH1 0x60 DUP7 ADD MLOAD SWAP2 POP PUSH2 0x11CE PUSH1 0x80 DUP8 ADD PUSH2 0x1170 JUMP JUMPDEST SWAP1 POP SWAP3 SWAP6 POP SWAP3 SWAP6 SWAP1 SWAP4 POP JUMP JUMPDEST PUSH4 0x4E487B71 PUSH1 0xE0 SHL PUSH1 0x0 MSTORE PUSH1 0x11 PUSH1 0x4 MSTORE PUSH1 0x24 PUSH1 0x0 REVERT JUMPDEST PUSH1 0x0 DUP2 PUSH1 0x0 NOT DIV DUP4 GT DUP3 ISZERO ISZERO AND ISZERO PUSH2 0x120A JUMPI PUSH2 0x120A PUSH2 0x11DA JUMP JUMPDEST POP MUL SWAP1 JUMP JUMPDEST PUSH4 0x4E487B71 PUSH1 0xE0 SHL PUSH1 0x0 MSTORE PUSH1 0x12 PUSH1 0x4 MSTORE PUSH1 0x24 PUSH1 0x0 REVERT JUMPDEST PUSH1 0x0 DUP3 PUSH2 0x1234 JUMPI PUSH2 0x1234 PUSH2 0x120F JUMP JUMPDEST POP DIV SWAP1 JUMP JUMPDEST PUSH1 0x0 JUMPDEST DUP4 DUP2 LT ISZERO PUSH2 0x1254 JUMPI DUP2 DUP2 ADD MLOAD DUP4 DUP3 ADD MSTORE PUSH1 0x20 ADD PUSH2 0x123C JUMP JUMPDEST DUP4 DUP2 GT ISZERO PUSH2 0x1263 JUMPI PUSH1 0x0 DUP5 DUP5 ADD MSTORE JUMPDEST POP POP POP POP JUMP JUMPDEST PUSH32 0x416363657373436F6E74726F6C3A206163636F756E7420000000000000000000 DUP2 MSTORE PUSH1 0x0 DUP4 MLOAD PUSH2 0x12A1 DUP2 PUSH1 0x17 DUP6 ADD PUSH1 0x20 DUP9 ADD PUSH2 0x1239 JUMP JUMPDEST PUSH17 0x1034B99036B4B9B9B4B733903937B6329 PUSH1 0x7D SHL PUSH1 0x17 SWAP2 DUP5 ADD SWAP2 DUP3 ADD MSTORE DUP4 MLOAD PUSH2 0x12D2 DUP2 PUSH1 0x28 DUP5 ADD PUSH1 0x20 DUP9 ADD PUSH2 0x1239 JUMP JUMPDEST ADD PUSH1 0x28 ADD SWAP5 SWAP4 POP POP POP POP JUMP JUMPDEST PUSH1 0x20 DUP2 MSTORE PUSH1 0x0 DUP3 MLOAD DUP1 PUSH1 0x20 DUP5 ADD MSTORE PUSH2 0x12FD DUP2 PUSH1 0x40 DUP6 ADD PUSH1 0x20 DUP8 ADD PUSH2 0x1239 JUMP JUMPDEST PUSH1 0x1F ADD PUSH1 0x1F NOT AND SWAP2 SWAP1 SWAP2 ADD PUSH1 0x40 ADD SWAP3 SWAP2 POP POP JUMP JUMPDEST PUSH1 0x0 PUSH4 0xFFFFFFFF DUP4 DUP2 AND SWAP1 DUP4 AND DUP2 DUP2 LT ISZERO PUSH2 0x132E JUMPI PUSH2 0x132E PUSH2 0x11DA JUMP JUMPDEST SUB SWAP4 SWAP3 POP POP POP JUMP JUMPDEST PUSH1 0x0 DUP3 NOT DUP3 GT ISZERO PUSH2 0x1349 JUMPI PUSH2 0x1349 PUSH2 0x11DA JUMP JUMPDEST POP ADD SWAP1 JUMP JUMPDEST PUSH4 0x4E487B71 PUSH1 0xE0 SHL PUSH1 0x0 MSTORE PUSH1 0x41 PUSH1 0x4 MSTORE PUSH1 0x24 PUSH1 0x0 REVERT JUMPDEST PUSH4 0x4E487B71 PUSH1 0xE0 SHL PUSH1 0x0 MSTORE PUSH1 0x32 PUSH1 0x4 MSTORE PUSH1 0x24 PUSH1 0x0 REVERT JUMPDEST PUSH1 0x0 DUP2 PUSH2 0x1389 JUMPI PUSH2 0x1389 PUSH2 0x11DA JUMP JUMPDEST POP PUSH1 0x0 NOT ADD SWAP1 JUMP JUMPDEST PUSH1 0x0 PUSH1 0x20 DUP3 DUP5 SUB SLT ISZERO PUSH2 0x13A3 JUMPI PUSH1 0x0 DUP1 REVERT JUMPDEST POP MLOAD SWAP2 SWAP1 POP JUMP JUMPDEST DUP1 MLOAD PUSH1 0x1 PUSH1 0x1 PUSH1 0x70 SHL SUB DUP2 AND DUP2 EQ PUSH2 0x1115 JUMPI PUSH1 0x0 DUP1 REVERT JUMPDEST PUSH1 0x0 DUP1 PUSH1 0x0 PUSH1 0x60 DUP5 DUP7 SUB SLT ISZERO PUSH2 0x13D6 JUMPI PUSH1 0x0 DUP1 REVERT JUMPDEST PUSH2 0x13DF DUP5 PUSH2 0x13AA JUMP JUMPDEST SWAP3 POP PUSH2 0x13ED PUSH1 0x20 DUP6 ADD PUSH2 0x13AA JUMP JUMPDEST SWAP2 POP PUSH1 0x40 DUP5 ADD MLOAD PUSH4 0xFFFFFFFF DUP2 AND DUP2 EQ PUSH2 0x1406 JUMPI PUSH1 0x0 DUP1 REVERT JUMPDEST DUP1 SWAP2 POP POP SWAP3 POP SWAP3 POP SWAP3 JUMP JUMPDEST PUSH1 0x0 DUP3 PUSH2 0x1420 JUMPI PUSH2 0x1420 PUSH2 0x120F JUMP JUMPDEST POP MOD SWAP1 JUMP INVALID LOG2 PUSH5 0x6970667358 0x22 SLT KECCAK256 0x23 0xCD MOD MLOAD LOG4 0xC5 PUSH32 0x1CC532AE5E1360FD5032A75C68D62131C4614B1BAB07CC2FDE64736F6C634300 ADDMOD EXP STOP CALLER 0xD2 ADDRESS POP 0xE0 OR PUSH31 0x436BD49953527DC9D5B7E647B92C071E11F266450D6128CAAAE01226F4C9A9 MLOAD GAS MSTORE8 0xC MOD DIFFICULTY STATICCALL SDIV NUMBER 0x2A 0xBB CALLDATACOPY 0xBD DUP1 CALLER PUSH27 0x29C3CBF40EC720BDAA5AD00000000000000000000000000000000 "
        },
        "methodIdentifiers": {
          "DEFAULT_ADMIN_ROLE()": "a217fddf",
          "SUDO()": "f7de6b96",
          "SUDO_ADMIN()": "8c3e62b6",
          "blockTimestampLast()": "c5700a02",
          "consult(address,uint256)": "3ddac953",
          "getRoleAdmin(bytes32)": "248a9ca3",
          "grantRole(bytes32,address)": "2f2ff15d",
          "hasRole(bytes32,address)": "91d14854",
          "pair()": "a8aa1b31",
          "period()": "ef78d4fd",
          "price0Average()": "a6bb4539",
          "price0CumulativeLast()": "5909c0d5",
          "price1Average()": "5e6aaf2c",
          "price1CumulativeLast()": "5a3d5493",
          "read()": "57de26a4",
          "renounceRole(bytes32,address)": "36568abe",
          "revokeRole(bytes32,address)": "d547741f",
          "setPeriod(uint256)": "0f3a9f65",
          "supportsInterface(bytes4)": "01ffc9a7",
          "token0()": "0dfe1681",
          "token1()": "d21220a7",
          "update()": "a2e62045"
        }
      }
    }
  }
}