{
  "contracts/Poke.sol": {
    "Poke": {
      "abi": [
        {
          "anonymous": false,
          "inputs": [
            {
              "indexed": false,
              "internalType": "uint256",
              "name": "currTime",
              "type": "uint256"
            },
            {
              "indexed": false,
              "internalType": "uint256",
              "name": "currNum",
              "type": "uint256"
            }
          ],
          "name": "Poked",
          "type": "event"
        },
        {
          "inputs": [],
          "name": "num",
          "outputs": [
            {
              "internalType": "uint256",
              "name": "",
              "type": "uint256"
            }
          ],
          "stateMutability": "view",
          "type": "function"
        },
        {
          "inputs": [],
          "name": "poke",
          "outputs": [],
          "stateMutability": "nonpayable",
          "type": "function"
        }
      ],
      "evm": {
        "bytecode": {
          "linkReferences": {},
          "object": "60806040526000805534801561001457600080fd5b50610101806100246000396000f3fe6080604052348015600f57600080fd5b506004361060325760003560e01c8063181783581460375780634e70b1dc14603f575b600080fd5b603d6059565b005b604760005481565b60405190815260200160405180910390f35b600054606590600160a6565b60008190556040805142815260208101929092527f3236527b80ebd86d1f99f3d009522e5ea7d1b641add94da4a98aeb1d87e05238910160405180910390a1565b6000821982111560c657634e487b7160e01b600052601160045260246000fd5b50019056fea264697066735822122055d332c6c9218607b43b2edc00cba892ff89b8044b4e941af39ae058197d16d364736f6c634300080a0033",
          "opcodes": "PUSH1 0x80 PUSH1 0x40 MSTORE PUSH1 0x0 DUP1 SSTORE CALLVALUE DUP1 ISZERO PUSH2 0x14 JUMPI PUSH1 0x0 DUP1 REVERT JUMPDEST POP PUSH2 0x101 DUP1 PUSH2 0x24 PUSH1 0x0 CODECOPY PUSH1 0x0 RETURN INVALID PUSH1 0x80 PUSH1 0x40 MSTORE CALLVALUE DUP1 ISZERO PUSH1 0xF JUMPI PUSH1 0x0 DUP1 REVERT JUMPDEST POP PUSH1 0x4 CALLDATASIZE LT PUSH1 0x32 JUMPI PUSH1 0x0 CALLDATALOAD PUSH1 0xE0 SHR DUP1 PUSH4 0x18178358 EQ PUSH1 0x37 JUMPI DUP1 PUSH4 0x4E70B1DC EQ PUSH1 0x3F JUMPI JUMPDEST PUSH1 0x0 DUP1 REVERT JUMPDEST PUSH1 0x3D PUSH1 0x59 JUMP JUMPDEST STOP JUMPDEST PUSH1 0x47 PUSH1 0x0 SLOAD DUP2 JUMP JUMPDEST PUSH1 0x40 MLOAD SWAP1 DUP2 MSTORE PUSH1 0x20 ADD PUSH1 0x40 MLOAD DUP1 SWAP2 SUB SWAP1 RETURN JUMPDEST PUSH1 0x0 SLOAD PUSH1 0x65 SWAP1 PUSH1 0x1 PUSH1 0xA6 JUMP JUMPDEST PUSH1 0x0 DUP2 SWAP1 SSTORE PUSH1 0x40 DUP1 MLOAD TIMESTAMP DUP2 MSTORE PUSH1 0x20 DUP2 ADD SWAP3 SWAP1 SWAP3 MSTORE PUSH32 0x3236527B80EBD86D1F99F3D009522E5EA7D1B641ADD94DA4A98AEB1D87E05238 SWAP2 ADD PUSH1 0x40 MLOAD DUP1 SWAP2 SUB SWAP1 LOG1 JUMP JUMPDEST PUSH1 0x0 DUP3 NOT DUP3 GT ISZERO PUSH1 0xC6 JUMPI PUSH4 0x4E487B71 PUSH1 0xE0 SHL PUSH1 0x0 MSTORE PUSH1 0x11 PUSH1 0x4 MSTORE PUSH1 0x24 PUSH1 0x0 REVERT JUMPDEST POP ADD SWAP1 JUMP INVALID LOG2 PUSH5 0x6970667358 0x22 SLT KECCAK256 SSTORE 0xD3 ORIGIN 0xC6 0xC9 0x21 DUP7 SMOD 0xB4 EXTCODESIZE 0x2E 0xDC STOP 0xCB 0xA8 SWAP3 SELFDESTRUCT DUP10 0xB8 DIV 0x4B 0x4E SWAP5 BYTE RETURN SWAP11 0xE0 PC NOT PUSH30 0x16D364736F6C634300080A00330000000000000000000000000000000000 "
        },
        "methodIdentifiers": {
          "num()": "4e70b1dc",
          "poke()": "18178358"
        }
      }
    }
  }
}