{
  "_format": "hh-sol-artifact-1",
  "contractName": "UniswapV2Oracle",
  "sourceName": "contracts/oracles/UniswapV2Oracle.sol",
  "abi": [
    {
      "inputs": [
        {
          "internalType": "address",
          "name": "factory",
          "type": "address"
        },
        {
          "internalType": "address",
          "name": "tokenA",
          "type": "address"
        },
        {
          "internalType": "address",
          "name": "tokenB",
          "type": "address"
        },
        {
          "internalType": "uint256",
          "name": "_period",
          "type": "uint256"
        }
      ],
      "stateMutability": "nonpayable",
      "type": "constructor"
    },
    {
      "inputs": [],
      "name": "blockTimestampLast",
      "outputs": [
        {
          "internalType": "uint32",
          "name": "",
          "type": "uint32"
        }
      ],
      "stateMutability": "view",
      "type": "function"
    },
    {
      "inputs": [
        {
          "internalType": "address",
          "name": "token",
          "type": "address"
        },
        {
          "internalType": "uint256",
          "name": "amountIn",
          "type": "uint256"
        }
      ],
      "name": "consult",
      "outputs": [
        {
          "internalType": "uint256",
          "name": "",
          "type": "uint256"
        }
      ],
      "stateMutability": "view",
      "type": "function"
    },
    {
      "inputs": [],
      "name": "pair",
      "outputs": [
        {
          "internalType": "contract IUniswapV2Pair",
          "name": "",
          "type": "address"
        }
      ],
      "stateMutability": "view",
      "type": "function"
    },
    {
      "inputs": [],
      "name": "period",
      "outputs": [
        {
          "internalType": "uint256",
          "name": "",
          "type": "uint256"
        }
      ],
      "stateMutability": "view",
      "type": "function"
    },
    {
      "inputs": [],
      "name": "price0Average",
      "outputs": [
        {
          "internalType": "uint224",
          "name": "_x",
          "type": "uint224"
        }
      ],
      "stateMutability": "view",
      "type": "function"
    },
    {
      "inputs": [],
      "name": "price0CumulativeLast",
      "outputs": [
        {
          "internalType": "uint256",
          "name": "",
          "type": "uint256"
        }
      ],
      "stateMutability": "view",
      "type": "function"
    },
    {
      "inputs": [],
      "name": "price1Average",
      "outputs": [
        {
          "internalType": "uint224",
          "name": "_x",
          "type": "uint224"
        }
      ],
      "stateMutability": "view",
      "type": "function"
    },
    {
      "inputs": [],
      "name": "price1CumulativeLast",
      "outputs": [
        {
          "internalType": "uint256",
          "name": "",
          "type": "uint256"
        }
      ],
      "stateMutability": "view",
      "type": "function"
    },
    {
      "inputs": [],
      "name": "token0",
      "outputs": [
        {
          "internalType": "address",
          "name": "",
          "type": "address"
        }
      ],
      "stateMutability": "view",
      "type": "function"
    },
    {
      "inputs": [],
      "name": "token1",
      "outputs": [
        {
          "internalType": "address",
          "name": "",
          "type": "address"
        }
      ],
      "stateMutability": "view",
      "type": "function"
    },
    {
      "inputs": [],
      "name": "update",
      "outputs": [],
      "stateMutability": "nonpayable",
      "type": "function"
    }
  ],
  "bytecode": "0x60e06040523480156200001157600080fd5b5060405162000f8c38038062000f8c8339810160408190526200003491620003a3565b600081905560405163e6a4390560e01b81526001600160a01b038481166004830152838116602483015285169063e6a4390590604401602060405180830381865afa15801562000088573d6000803e3d6000fd5b505050506040513d601f19601f82011682018060405250810190620000ae9190620003f5565b6001600160a01b0316608081905260408051630dfe168160e01b81529051630dfe1681916004808201926020929091908290030181865afa158015620000f8573d6000803e3d6000fd5b505050506040513d601f19601f820116820180604052508101906200011e9190620003f5565b6001600160a01b031660a0816001600160a01b0316815250506080516001600160a01b031663d21220a76040518163ffffffff1660e01b8152600401602060405180830381865afa15801562000178573d6000803e3d6000fd5b505050506040513d601f19601f820116820180604052508101906200019e9190620003f5565b6001600160a01b031660c0816001600160a01b0316815250506080516001600160a01b0316635909c0d56040518163ffffffff1660e01b8152600401602060405180830381865afa158015620001f8573d6000803e3d6000fd5b505050506040513d601f19601f820116820180604052508101906200021e91906200041a565b6001819055506080516001600160a01b0316635a3d54936040518163ffffffff1660e01b8152600401602060405180830381865afa15801562000265573d6000803e3d6000fd5b505050506040513d601f19601f820116820180604052508101906200028b91906200041a565b6002819055506000806080516001600160a01b0316630902f1ac6040518163ffffffff1660e01b8152600401606060405180830381865afa158015620002d5573d6000803e3d6000fd5b505050506040513d601f19601f82011682018060405250810190620002fb91906200044c565b6003805463ffffffff191663ffffffff9290921691909117905590925090506001600160701b038216158015906200033c57506000816001600160701b0316115b6200037a5760405162461bcd60e51b815260206004820152600a60248201526932b6b83a3c96b830b4b960b11b604482015260640160405180910390fd5b505050505050620004a2565b80516001600160a01b03811681146200039e57600080fd5b919050565b60008060008060808587031215620003ba57600080fd5b620003c58562000386565b9350620003d56020860162000386565b9250620003e56040860162000386565b6060959095015193969295505050565b6000602082840312156200040857600080fd5b620004138262000386565b9392505050565b6000602082840312156200042d57600080fd5b5051919050565b80516001600160701b03811681146200039e57600080fd5b6000806000606084860312156200046257600080fd5b6200046d8462000434565b92506200047d6020850162000434565b9150604084015163ffffffff811681146200049757600080fd5b809150509250925092565b60805160a05160c051610aa6620004e6600039600081816101be015261026501526000818160b301526101ed01526000818161017201526103210152610aa66000f3fe608060405234801561001057600080fd5b50600436106100a95760003560e01c8063a2e6204511610071578063a2e6204514610150578063a6bb45391461015a578063a8aa1b311461016d578063c5700a0214610194578063d21220a7146101b9578063ef78d4fd146101e057600080fd5b80630dfe1681146100ae5780633ddac953146100f25780635909c0d5146101135780635a3d54931461011c5780635e6aaf2c14610125575b600080fd5b6100d57f000000000000000000000000000000000000000000000000000000000000000081565b6040516001600160a01b0390911681526020015b60405180910390f35b610105610100366004610903565b6101e9565b6040519081526020016100e9565b61010560015481565b61010560025481565b600554610138906001600160e01b031681565b6040516001600160e01b0390911681526020016100e9565b610158610317565b005b600454610138906001600160e01b031681565b6100d57f000000000000000000000000000000000000000000000000000000000000000081565b6003546101a49063ffffffff1681565b60405163ffffffff90911681526020016100e9565b6100d57f000000000000000000000000000000000000000000000000000000000000000081565b61010560005481565b60007f00000000000000000000000000000000000000000000000000000000000000006001600160a01b0316836001600160a01b031614156102635760408051602081019091526004546001600160e01b031681526102539061024c9084610479565b5160701c90565b6001600160901b03169050610311565b7f00000000000000000000000000000000000000000000000000000000000000006001600160a01b0316836001600160a01b031614156102c45760408051602081019091526005546001600160e01b031681526102539061024c9084610479565b60405162461bcd60e51b815260206004820152601a60248201527f554e4956324f5241434c453a20494e56414c49445f544f4b454e00000000000060448201526064015b60405180910390fd5b92915050565b60008060006103457f0000000000000000000000000000000000000000000000000000000000000000610517565b60035492955090935091506000906103639063ffffffff1683610951565b90506000548163ffffffff1610156103bd5760405162461bcd60e51b815260206004820152601f60248201527f554e4956324f5241434c453a20504552494f445f4e4f545f454c4150534544006044820152606401610308565b60405180602001604052808263ffffffff166001548703816103e1576103e1610976565b046001600160e01b039081169091529051600480546001600160e01b031916919092161790556040805160208101909152600254819063ffffffff84169086038161042e5761042e610976565b046001600160e01b039081169091529051600580546001600160e01b03191691909216179055506001929092556002556003805463ffffffff191663ffffffff909216919091179055565b60408051602081019091526000815260008215806104b6575083516001600160e01b0316836104a8818361098c565b92506104b490836109ab565b145b6105025760405162461bcd60e51b815260206004820152601960248201527f4669786564506f696e743a3a6d756c3a206f766572666c6f77000000000000006044820152606401610308565b60408051602081019091529081529392505050565b600080600061052461070e565b9050836001600160a01b0316635909c0d56040518163ffffffff1660e01b8152600401602060405180830381865afa158015610564573d6000803e3d6000fd5b505050506040513d601f19601f8201168201806040525081019061058891906109bf565b9250836001600160a01b0316635a3d54936040518163ffffffff1660e01b8152600401602060405180830381865afa1580156105c8573d6000803e3d6000fd5b505050506040513d601f19601f820116820180604052508101906105ec91906109bf565b91506000806000866001600160a01b0316630902f1ac6040518163ffffffff1660e01b8152600401606060405180830381865afa158015610631573d6000803e3d6000fd5b505050506040513d601f19601f8201168201806040525081019061065591906109f4565b9250925092508363ffffffff168163ffffffff161461070457600061067a8286610951565b90508063ffffffff1661069f846001600160701b0316866001600160701b0316610724565b516106b391906001600160e01b031661098c565b6106bd9088610a44565b96508063ffffffff166106e2856001600160701b0316856001600160701b0316610724565b516106f691906001600160e01b031661098c565b6107009087610a44565b9550505b5050509193909250565b600061071f64010000000042610a5c565b905090565b604080516020810190915260008152600082116107925760405162461bcd60e51b815260206004820152602660248201527f4669786564506f696e743a3a6672616374696f6e3a206469766973696f6e206260448201526579207a65726f60d01b6064820152608401610308565b826107ac5750604080516020810190915260008152610311565b6001600160901b0383116108435760006107ca83607086901b6109ab565b90506001600160e01b038111156108235760405162461bcd60e51b815260206004820152601e60248201527f4669786564506f696e743a3a6672616374696f6e3a206f766572666c6f7700006044820152606401610308565b6040518060200160405280826001600160e01b0316815250915050610311565b60006107ca84600160701b85600080806000198587098587029250828110838203039150508060001415610889576000841161087e57600080fd5b5082900490506108fc565b80841161089557600080fd5b6000848688096000868103871696879004966002600389028118808a02820302808a02820302808a02820302808a02820302808a02820302808a02909103029181900381900460010186841190950394909402919094039290920491909117919091029150505b9392505050565b6000806040838503121561091657600080fd5b82356001600160a01b038116811461092d57600080fd5b946020939093013593505050565b634e487b7160e01b600052601160045260246000fd5b600063ffffffff8381169083168181101561096e5761096e61093b565b039392505050565b634e487b7160e01b600052601260045260246000fd5b60008160001904831182151516156109a6576109a661093b565b500290565b6000826109ba576109ba610976565b500490565b6000602082840312156109d157600080fd5b5051919050565b80516001600160701b03811681146109ef57600080fd5b919050565b600080600060608486031215610a0957600080fd5b610a12846109d8565b9250610a20602085016109d8565b9150604084015163ffffffff81168114610a3957600080fd5b809150509250925092565b60008219821115610a5757610a5761093b565b500190565b600082610a6b57610a6b610976565b50069056fea264697066735822122081e60177bba54d4fff4ed444501e9afe4560a51adb70e70fd4ef9d41bbfe816b64736f6c634300080a0033",
  "linkReferences": {},
  "deployedLinkReferences": {}
}