{
  "_format": "hh-sol-artifact-1",
  "contractName": "DfxCadTWAP",
  "sourceName": "contracts/oracles/DfxCadTWAP.sol",
  "abi": [
    {
      "inputs": [
        {
          "internalType": "address",
          "name": "_admin",
          "type": "address"
        }
      ],
      "stateMutability": "nonpayable",
      "type": "constructor"
    },
    {
      "anonymous": false,
      "inputs": [
        {
          "indexed": true,
          "internalType": "bytes32",
          "name": "role",
          "type": "bytes32"
        },
        {
          "indexed": true,
          "internalType": "bytes32",
          "name": "previousAdminRole",
          "type": "bytes32"
        },
        {
          "indexed": true,
          "internalType": "bytes32",
          "name": "newAdminRole",
          "type": "bytes32"
        }
      ],
      "name": "RoleAdminChanged",
      "type": "event"
    },
    {
      "anonymous": false,
      "inputs": [
        {
          "indexed": true,
          "internalType": "bytes32",
          "name": "role",
          "type": "bytes32"
        },
        {
          "indexed": true,
          "internalType": "address",
          "name": "account",
          "type": "address"
        },
        {
          "indexed": true,
          "internalType": "address",
          "name": "sender",
          "type": "address"
        }
      ],
      "name": "RoleGranted",
      "type": "event"
    },
    {
      "anonymous": false,
      "inputs": [
        {
          "indexed": true,
          "internalType": "bytes32",
          "name": "role",
          "type": "bytes32"
        },
        {
          "indexed": true,
          "internalType": "address",
          "name": "account",
          "type": "address"
        },
        {
          "indexed": true,
          "internalType": "address",
          "name": "sender",
          "type": "address"
        }
      ],
      "name": "RoleRevoked",
      "type": "event"
    },
    {
      "inputs": [],
      "name": "DEFAULT_ADMIN_ROLE",
      "outputs": [
        {
          "internalType": "bytes32",
          "name": "",
          "type": "bytes32"
        }
      ],
      "stateMutability": "view",
      "type": "function"
    },
    {
      "inputs": [],
      "name": "SUDO",
      "outputs": [
        {
          "internalType": "bytes32",
          "name": "",
          "type": "bytes32"
        }
      ],
      "stateMutability": "view",
      "type": "function"
    },
    {
      "inputs": [],
      "name": "SUDO_ADMIN",
      "outputs": [
        {
          "internalType": "bytes32",
          "name": "",
          "type": "bytes32"
        }
      ],
      "stateMutability": "view",
      "type": "function"
    },
    {
      "inputs": [],
      "name": "blockTimestampLast",
      "outputs": [
        {
          "internalType": "uint32",
          "name": "",
          "type": "uint32"
        }
      ],
      "stateMutability": "view",
      "type": "function"
    },
    {
      "inputs": [
        {
          "internalType": "address",
          "name": "token",
          "type": "address"
        },
        {
          "internalType": "uint256",
          "name": "amountIn",
          "type": "uint256"
        }
      ],
      "name": "consult",
      "outputs": [
        {
          "internalType": "uint256",
          "name": "",
          "type": "uint256"
        }
      ],
      "stateMutability": "view",
      "type": "function"
    },
    {
      "inputs": [
        {
          "internalType": "bytes32",
          "name": "role",
          "type": "bytes32"
        }
      ],
      "name": "getRoleAdmin",
      "outputs": [
        {
          "internalType": "bytes32",
          "name": "",
          "type": "bytes32"
        }
      ],
      "stateMutability": "view",
      "type": "function"
    },
    {
      "inputs": [
        {
          "internalType": "bytes32",
          "name": "role",
          "type": "bytes32"
        },
        {
          "internalType": "address",
          "name": "account",
          "type": "address"
        }
      ],
      "name": "grantRole",
      "outputs": [],
      "stateMutability": "nonpayable",
      "type": "function"
    },
    {
      "inputs": [
        {
          "internalType": "bytes32",
          "name": "role",
          "type": "bytes32"
        },
        {
          "internalType": "address",
          "name": "account",
          "type": "address"
        }
      ],
      "name": "hasRole",
      "outputs": [
        {
          "internalType": "bool",
          "name": "",
          "type": "bool"
        }
      ],
      "stateMutability": "view",
      "type": "function"
    },
    {
      "inputs": [],
      "name": "pair",
      "outputs": [
        {
          "internalType": "contract IUniswapV2Pair",
          "name": "",
          "type": "address"
        }
      ],
      "stateMutability": "view",
      "type": "function"
    },
    {
      "inputs": [],
      "name": "period",
      "outputs": [
        {
          "internalType": "uint256",
          "name": "",
          "type": "uint256"
        }
      ],
      "stateMutability": "view",
      "type": "function"
    },
    {
      "inputs": [],
      "name": "price0Average",
      "outputs": [
        {
          "internalType": "uint224",
          "name": "_x",
          "type": "uint224"
        }
      ],
      "stateMutability": "view",
      "type": "function"
    },
    {
      "inputs": [],
      "name": "price0CumulativeLast",
      "outputs": [
        {
          "internalType": "uint256",
          "name": "",
          "type": "uint256"
        }
      ],
      "stateMutability": "view",
      "type": "function"
    },
    {
      "inputs": [],
      "name": "price1Average",
      "outputs": [
        {
          "internalType": "uint224",
          "name": "_x",
          "type": "uint224"
        }
      ],
      "stateMutability": "view",
      "type": "function"
    },
    {
      "inputs": [],
      "name": "price1CumulativeLast",
      "outputs": [
        {
          "internalType": "uint256",
          "name": "",
          "type": "uint256"
        }
      ],
      "stateMutability": "view",
      "type": "function"
    },
    {
      "inputs": [],
      "name": "read",
      "outputs": [
        {
          "internalType": "uint256",
          "name": "",
          "type": "uint256"
        }
      ],
      "stateMutability": "view",
      "type": "function"
    },
    {
      "inputs": [
        {
          "internalType": "bytes32",
          "name": "role",
          "type": "bytes32"
        },
        {
          "internalType": "address",
          "name": "account",
          "type": "address"
        }
      ],
      "name": "renounceRole",
      "outputs": [],
      "stateMutability": "nonpayable",
      "type": "function"
    },
    {
      "inputs": [
        {
          "internalType": "bytes32",
          "name": "role",
          "type": "bytes32"
        },
        {
          "internalType": "address",
          "name": "account",
          "type": "address"
        }
      ],
      "name": "revokeRole",
      "outputs": [],
      "stateMutability": "nonpayable",
      "type": "function"
    },
    {
      "inputs": [
        {
          "internalType": "uint256",
          "name": "_period",
          "type": "uint256"
        }
      ],
      "name": "setPeriod",
      "outputs": [],
      "stateMutability": "nonpayable",
      "type": "function"
    },
    {
      "inputs": [
        {
          "internalType": "bytes4",
          "name": "interfaceId",
          "type": "bytes4"
        }
      ],
      "name": "supportsInterface",
      "outputs": [
        {
          "internalType": "bool",
          "name": "",
          "type": "bool"
        }
      ],
      "stateMutability": "view",
      "type": "function"
    },
    {
      "inputs": [],
      "name": "token0",
      "outputs": [
        {
          "internalType": "address",
          "name": "",
          "type": "address"
        }
      ],
      "stateMutability": "view",
      "type": "function"
    },
    {
      "inputs": [],
      "name": "token1",
      "outputs": [
        {
          "internalType": "address",
          "name": "",
          "type": "address"
        }
      ],
      "stateMutability": "view",
      "type": "function"
    },
    {
      "inputs": [],
      "name": "update",
      "outputs": [],
      "stateMutability": "nonpayable",
      "type": "function"
    }
  ],
  "bytecode": "0x60e0604052600780546001600160a01b0319908116735f4ec3df9cbd43714fe2740f5e3616155c5b8419179091556008805490911673a34317db73e77d453b1b8d04550c44d10e981c8e1790553480156200005957600080fd5b5060405162001b0c38038062001b0c8339810160408190526200007c916200056d565b615460600181905560405163e6a4390560e01b815273888888435fde8e7d4c54cab67f206e4199454c606004820181905273c02aaa39b223fe8d0a0e5c4f27ead9083c756cc26024830181905273c0aee478e3658e2610c5f7a4a2e1777ce9e4f2ac939192909190849063e6a4390590604401602060405180830381865afa1580156200010d573d6000803e3d6000fd5b505050506040513d601f19601f820116820180604052508101906200013391906200056d565b6001600160a01b0316608081905260408051630dfe168160e01b81529051630dfe1681916004808201926020929091908290030181865afa1580156200017d573d6000803e3d6000fd5b505050506040513d601f19601f82011682018060405250810190620001a391906200056d565b6001600160a01b031660a0816001600160a01b0316815250506080516001600160a01b031663d21220a76040518163ffffffff1660e01b8152600401602060405180830381865afa158015620001fd573d6000803e3d6000fd5b505050506040513d601f19601f820116820180604052508101906200022391906200056d565b6001600160a01b031660c0816001600160a01b0316815250506080516001600160a01b0316635909c0d56040518163ffffffff1660e01b8152600401602060405180830381865afa1580156200027d573d6000803e3d6000fd5b505050506040513d601f19601f82011682018060405250810190620002a391906200059f565b6002819055506080516001600160a01b0316635a3d54936040518163ffffffff1660e01b8152600401602060405180830381865afa158015620002ea573d6000803e3d6000fd5b505050506040513d601f19601f820116820180604052508101906200031091906200059f565b6003819055506000806080516001600160a01b0316630902f1ac6040518163ffffffff1660e01b8152600401606060405180830381865afa1580156200035a573d6000803e3d6000fd5b505050506040513d601f19601f82011682018060405250810190620003809190620005d6565b6004805463ffffffff191663ffffffff9290921691909117905590925090506001600160701b03821615801590620003c157506000816001600160701b0316115b620003ff5760405162461bcd60e51b815260206004820152600a60248201526932b6b83a3c96b830b4b960b11b604482015260640160405180910390fd5b5050505050506200043560008051602062001aec83398151915260008051602062001acc8339815191526200047260201b60201c565b6200045060008051602062001acc83398151915282620004bd565b6200046b60008051602062001aec83398151915282620004bd565b506200062c565b600082815260208190526040808220600101805490849055905190918391839186917fbd79b86ffe0ab8e8776151514217cd7cacd52c909f66475c3af44e129f0b00ff9190a4505050565b620004c98282620004cd565b5050565b6000828152602081815260408083206001600160a01b038516845290915290205460ff16620004c9576000828152602081815260408083206001600160a01b03851684529091529020805460ff19166001179055620005293390565b6001600160a01b0316816001600160a01b0316837f2f8788117e7eff1d82e926ec794901d17c78024a50270940304540a733656f0d60405160405180910390a45050565b6000602082840312156200058057600080fd5b81516001600160a01b03811681146200059857600080fd5b9392505050565b600060208284031215620005b257600080fd5b5051919050565b80516001600160701b0381168114620005d157600080fd5b919050565b600080600060608486031215620005ec57600080fd5b620005f784620005b9565b92506200060760208501620005b9565b9150604084015163ffffffff811681146200062157600080fd5b809150509250925092565b60805160a05160c05161145b62000671600039600081816103200152610517015260008181610174015261049f0152600081816102d401526109d5015261145b6000f3fe608060405234801561001057600080fd5b50600436106101425760003560e01c80638c3e62b6116100b8578063a8aa1b311161007c578063a8aa1b31146102cf578063c5700a02146102f6578063d21220a71461031b578063d547741f14610342578063ef78d4fd14610355578063f7de6b961461035e57600080fd5b80638c3e62b61461027257806391d1485414610299578063a217fddf146102ac578063a2e62045146102b4578063a6bb4539146102bc57600080fd5b806336568abe1161010a57806336568abe146102075780633ddac9531461021a57806357de26a41461022d5780635909c0d5146102355780635a3d54931461023e5780635e6aaf2c1461024757600080fd5b806301ffc9a7146101475780630dfe16811461016f5780630f3a9f65146101ae578063248a9ca3146101c35780632f2ff15d146101f4575b600080fd5b61015a6101553660046110bb565b610385565b60405190151581526020015b60405180910390f35b6101967f000000000000000000000000000000000000000000000000000000000000000081565b6040516001600160a01b039091168152602001610166565b6101c16101bc3660046110e5565b6103bc565b005b6101e66101d13660046110e5565b60009081526020819052604090206001015490565b604051908152602001610166565b6101c161020236600461111a565b6103ed565b6101c161021536600461111a565b610418565b6101e6610228366004611146565b61049b565b6101e66105be565b6101e660025481565b6101e660035481565b60065461025a906001600160e01b031681565b6040516001600160e01b039091168152602001610166565b6101e67fd23050e0177e436bd49953527dc9d5b7e647b92c071e11f266450d6128caaae081565b61015a6102a736600461111a565b61075b565b6101e6600081565b6101c1610784565b60055461025a906001600160e01b031681565b6101967f000000000000000000000000000000000000000000000000000000000000000081565b6004546103069063ffffffff1681565b60405163ffffffff9091168152602001610166565b6101967f000000000000000000000000000000000000000000000000000000000000000081565b6101c161035036600461111a565b6107ba565b6101e660015481565b6101e67f1226f4c9a9515a530c0644fa05432abb37bd80337a029c3cbf40ec720bdaa5ad81565b60006001600160e01b03198216637965db0b60e01b14806103b657506301ffc9a760e01b6001600160e01b03198316145b92915050565b7f1226f4c9a9515a530c0644fa05432abb37bd80337a029c3cbf40ec720bdaa5ad6103e781336107e0565b50600155565b60008281526020819052604090206001015461040981336107e0565b6104138383610844565b505050565b6001600160a01b038116331461048d5760405162461bcd60e51b815260206004820152602f60248201527f416363657373436f6e74726f6c3a2063616e206f6e6c792072656e6f756e636560448201526e103937b632b9903337b91039b2b63360891b60648201526084015b60405180910390fd5b61049782826108c8565b5050565b60007f00000000000000000000000000000000000000000000000000000000000000006001600160a01b0316836001600160a01b031614156105155760408051602081019091526005546001600160e01b03168152610505906104fe908461092d565b5160701c90565b6001600160901b031690506103b6565b7f00000000000000000000000000000000000000000000000000000000000000006001600160a01b0316836001600160a01b031614156105765760408051602081019091526006546001600160e01b03168152610505906104fe908461092d565b60405162461bcd60e51b815260206004820152601a60248201527f554e4956324f5241434c453a20494e56414c49445f544f4b454e0000000000006044820152606401610484565b6000806105e773888888435fde8e7d4c54cab67f206e4199454c60670de0b6b3a764000061049b565b90506000600760009054906101000a90046001600160a01b03166001600160a01b031663feaf968c6040518163ffffffff1660e01b815260040160a060405180830381865afa15801561063e573d6000803e3d6000fd5b505050506040513d601f19601f82011682018060405250810190610662919061118a565b5050509150506000600860009054906101000a90046001600160a01b03166001600160a01b031663feaf968c6040518163ffffffff1660e01b815260040160a060405180830381865afa1580156106bd573d6000803e3d6000fd5b505050506040513d601f19601f820116820180604052508101906106e1919061118a565b5050509150506000826402540be4006106fa91906111f0565b9050600061070d836402540be4006111f0565b90506000670de0b6b3a764000061072484886111f0565b61072e9190611225565b905060008261074583670de0b6b3a76400006111f0565b61074f9190611225565b98975050505050505050565b6000918252602082815260408084206001600160a01b0393909316845291905290205460ff1690565b7f1226f4c9a9515a530c0644fa05432abb37bd80337a029c3cbf40ec720bdaa5ad6107af81336107e0565b6107b76109cb565b50565b6000828152602081905260409020600101546107d681336107e0565b61041383836108c8565b6107ea828261075b565b61049757610802816001600160a01b03166014610b2d565b61080d836020610b2d565b60405160200161081e929190611269565b60408051601f198184030181529082905262461bcd60e51b8252610484916004016112de565b61084e828261075b565b610497576000828152602081815260408083206001600160a01b03851684529091529020805460ff191660011790556108843390565b6001600160a01b0316816001600160a01b0316837f2f8788117e7eff1d82e926ec794901d17c78024a50270940304540a733656f0d60405160405180910390a45050565b6108d2828261075b565b15610497576000828152602081815260408083206001600160a01b0385168085529252808320805460ff1916905551339285917ff6391f5c32d9c69d2a47ea670b442974b53935d1edc7fd64eb21e047a839171b9190a45050565b604080516020810190915260008152600082158061096a575083516001600160e01b03168361095c81836111f0565b92506109689083611225565b145b6109b65760405162461bcd60e51b815260206004820152601960248201527f4669786564506f696e743a3a6d756c3a206f766572666c6f77000000000000006044820152606401610484565b60408051602081019091529081529392505050565b60008060006109f97f0000000000000000000000000000000000000000000000000000000000000000610cd0565b6004549295509093509150600090610a179063ffffffff1683611311565b90506001548163ffffffff161015610a715760405162461bcd60e51b815260206004820152601f60248201527f554e4956324f5241434c453a20504552494f445f4e4f545f454c4150534544006044820152606401610484565b60405180602001604052808263ffffffff16600254870381610a9557610a9561120f565b046001600160e01b039081169091529051600580546001600160e01b031916919092161790556040805160208101909152600354819063ffffffff841690860381610ae257610ae261120f565b046001600160e01b039081169091529051600680546001600160e01b03191691909216179055506002929092556003556004805463ffffffff191663ffffffff909216919091179055565b60606000610b3c8360026111f0565b610b47906002611336565b67ffffffffffffffff811115610b5f57610b5f61134e565b6040519080825280601f01601f191660200182016040528015610b89576020820181803683370190505b509050600360fc1b81600081518110610ba457610ba4611364565b60200101906001600160f81b031916908160001a905350600f60fb1b81600181518110610bd357610bd3611364565b60200101906001600160f81b031916908160001a9053506000610bf78460026111f0565b610c02906001611336565b90505b6001811115610c7a576f181899199a1a9b1b9c1cb0b131b232b360811b85600f1660108110610c3657610c36611364565b1a60f81b828281518110610c4c57610c4c611364565b60200101906001600160f81b031916908160001a90535060049490941c93610c738161137a565b9050610c05565b508315610cc95760405162461bcd60e51b815260206004820181905260248201527f537472696e67733a20686578206c656e67746820696e73756666696369656e746044820152606401610484565b9392505050565b6000806000610cdd610ec7565b9050836001600160a01b0316635909c0d56040518163ffffffff1660e01b8152600401602060405180830381865afa158015610d1d573d6000803e3d6000fd5b505050506040513d601f19601f82011682018060405250810190610d419190611391565b9250836001600160a01b0316635a3d54936040518163ffffffff1660e01b8152600401602060405180830381865afa158015610d81573d6000803e3d6000fd5b505050506040513d601f19601f82011682018060405250810190610da59190611391565b91506000806000866001600160a01b0316630902f1ac6040518163ffffffff1660e01b8152600401606060405180830381865afa158015610dea573d6000803e3d6000fd5b505050506040513d601f19601f82011682018060405250810190610e0e91906113c1565b9250925092508363ffffffff168163ffffffff1614610ebd576000610e338286611311565b90508063ffffffff16610e58846001600160701b0316866001600160701b0316610edd565b51610e6c91906001600160e01b03166111f0565b610e769088611336565b96508063ffffffff16610e9b856001600160701b0316856001600160701b0316610edd565b51610eaf91906001600160e01b03166111f0565b610eb99087611336565b9550505b5050509193909250565b6000610ed864010000000042611411565b905090565b60408051602081019091526000815260008211610f4b5760405162461bcd60e51b815260206004820152602660248201527f4669786564506f696e743a3a6672616374696f6e3a206469766973696f6e206260448201526579207a65726f60d01b6064820152608401610484565b82610f6557506040805160208101909152600081526103b6565b6001600160901b038311610ffc576000610f8383607086901b611225565b90506001600160e01b03811115610fdc5760405162461bcd60e51b815260206004820152601e60248201527f4669786564506f696e743a3a6672616374696f6e3a206f766572666c6f7700006044820152606401610484565b6040518060200160405280826001600160e01b03168152509150506103b6565b6000610f8384600160701b85600080806000198587098587029250828110838203039150508060001415611042576000841161103757600080fd5b508290049050610cc9565b80841161104e57600080fd5b6000848688096000868103871696879004966002600389028118808a02820302808a02820302808a02820302808a02820302808a02820302808a02909103029181900381900460010186841190950394909402919094039290920491909117919091029150509392505050565b6000602082840312156110cd57600080fd5b81356001600160e01b031981168114610cc957600080fd5b6000602082840312156110f757600080fd5b5035919050565b80356001600160a01b038116811461111557600080fd5b919050565b6000806040838503121561112d57600080fd5b8235915061113d602084016110fe565b90509250929050565b6000806040838503121561115957600080fd5b611162836110fe565b946020939093013593505050565b805169ffffffffffffffffffff8116811461111557600080fd5b600080600080600060a086880312156111a257600080fd5b6111ab86611170565b94506020860151935060408601519250606086015191506111ce60808701611170565b90509295509295909350565b634e487b7160e01b600052601160045260246000fd5b600081600019048311821515161561120a5761120a6111da565b500290565b634e487b7160e01b600052601260045260246000fd5b6000826112345761123461120f565b500490565b60005b8381101561125457818101518382015260200161123c565b83811115611263576000848401525b50505050565b7f416363657373436f6e74726f6c3a206163636f756e74200000000000000000008152600083516112a1816017850160208801611239565b7001034b99036b4b9b9b4b733903937b6329607d1b60179184019182015283516112d2816028840160208801611239565b01602801949350505050565b60208152600082518060208401526112fd816040850160208701611239565b601f01601f19169190910160400192915050565b600063ffffffff8381169083168181101561132e5761132e6111da565b039392505050565b60008219821115611349576113496111da565b500190565b634e487b7160e01b600052604160045260246000fd5b634e487b7160e01b600052603260045260246000fd5b600081611389576113896111da565b506000190190565b6000602082840312156113a357600080fd5b5051919050565b80516001600160701b038116811461111557600080fd5b6000806000606084860312156113d657600080fd5b6113df846113aa565b92506113ed602085016113aa565b9150604084015163ffffffff8116811461140657600080fd5b809150509250925092565b6000826114205761142061120f565b50069056fea264697066735822122023cd0651a4c57f1cc532ae5e1360fd5032a75c68d62131c4614b1bab07cc2fde64736f6c634300080a0033d23050e0177e436bd49953527dc9d5b7e647b92c071e11f266450d6128caaae01226f4c9a9515a530c0644fa05432abb37bd80337a029c3cbf40ec720bdaa5ad",
  "linkReferences": {},
  "deployedLinkReferences": {}
}